:020000040800F2
:100000000000022009220008CD180008CF180008BF
:10001000D1180008D3180008D51800080000000007
:100020000000000000000000000000002142000865
:10003000D718000800000000C1420008553E000823
:1000400059220008592200085922000859220008A4
:100050005922000859220008592200085922000894
:100060005922000859220008592200085922000884
:100070005922000859220008592200085922000874
:100080005922000859220008592200085922000864
:100090005922000859220008592200085922000854
:1000A0005922000859220008592200085922000844
:1000B0005922000859220008592200085922000834
:1000C0005922000859220008592200085922000824
:1000D00059220008D918000859220008592200089E
:1000E0005922000859220008592200085922000804
:1000F00059220008592200085922000859220008F4
:1001000059220008592200085922000859220008E3
:10011000592200085922000859220008E91800084D
:1001200059220008F9180008091900085922000886
:1001300059220008000000000000000059220008B9
:1001400059220008592200085922000859220008A3
:1001500059220008592200085922000819190008DC
:100160005922000859220008592200085922000883
:100170005922000859220008000000000000000079
:08018000592200085922000871
:1001900010B5054C237833B9044B13B10448AFF3C1
:1001A00000800123237010BD5808002000000000CB
:1001B000A064000808B5034B1BB103490348AFF323
:1001C000008008BD000000005C080020A06400085A
:1001D00053B94AB9002908BF00281CBF4FF0FF31AE
:1001E0004FF0FF3001F0DEB8ADF1080C6DE904CE40
:1001F00000F006F8DDF804E0DDE9022304B0704702
:100200002DE9F047089D04468E46002B4DD18A42C9
:10021000944669D9B2FA82F252B101FA02F3C2F1FC
:10022000200120FA01F10CFA02FC41EA030E94408D
:100230004FEA1C48210CBEFBF8F61FFA8CF708FBAE
:1002400016E341EA034306FB07F199420AD91CEB86
:10025000030306F1FF3080F01F81994240F21C81B8
:10026000023E63445B1AA4B2B3FBF8F008FB103300
:1002700044EA034400FB07F7A7420AD91CEB040435
:1002800000F1FF3380F00A81A74240F20781644405
:10029000023840EA0640E41B00261DB1D44000238A
:1002A000C5E900433146BDE8F0878B4209D9002DEE
:1002B00000F0EF800026C5E9000130463146BDE878
:1002C000F087B3FA83F6002E4AD18B4202D38242E2
:1002D00000F2F980841A61EB030301209E46002D91
:1002E000E0D0C5E9004EDDE702B9FFDEB2FA82F2E6
:1002F000002A40F09280A1EB0C014FEA1C471FFA44
:100300008CFE0126200CB1FBF7F307FB131140EA2A
:1003100001410EFB03F0884208D91CEB010103F1F7
:10032000FF3802D2884200F2CB804346091AA4B2B9
:10033000B1FBF7F007FB101144EA01440EFB00FE8D
:10034000A64508D91CEB040400F1FF3102D2A645F2
:1003500000F2BB800846A4EB0E0440EA03409CE791
:10036000C6F12007B34022FA07FC4CEA030C20FA3E
:1003700007F401FA06F31C43F9404FEA1C4900FA5E
:1003800006F3B1FBF9F8200C1FFA8CFE09FB1811DB
:1003900040EA014108FB0EF0884202FA06F20BD94E
:1003A0001CEB010108F1FF3A80F08880884240F29E
:1003B0008580A8F102086144091AA4B2B1FBF9F0E2
:1003C00009FB101144EA014100FB0EFE8E4508D9DD
:1003D0001CEB010100F1FF346CD28E456AD9023862
:1003E000614440EA0840A0FB0294A1EB0E01A14247
:1003F000C846A64656D353D05DB1B3EB080261EBB5
:100400000E0101FA07F722FA06F3F1401F43C5E98E
:10041000007100263146BDE8F087C2F12003D840C4
:100420000CFA02FC21FA03F3914001434FEA1C4706
:100430001FFA8CFEB3FBF7F007FB10360B0C43EAF8
:10044000064300FB0EF69E4204FA02F408D91CEBA8
:10045000030300F1FF382FD29E422DD902386344A6
:100460009B1B89B2B3FBF7F607FB163341EA034146
:1004700006FB0EF38B4208D91CEB010106F1FF3895
:1004800016D28B4214D9023E6144C91A46EA00468C
:1004900038E72E46284605E70646E3E61846F8E61E
:1004A0004B45A9D2B9EB020864EB0C0E0138A3E767
:1004B0004646EAE7204694E74046D1E7D0467BE748
:1004C000023B614432E7304609E76444023842E7C0
:1004D00003685A004CBF43F0004323F00043184424
:1004E000704700BF2DE9F84329B34F1E0446154657
:1004F0003E464FF0000808EB060101EBD1714910B0
:1005000004EBC1094846FFF7E3FF0346C800083083
:100510008F42204409D0AB4209D8FFF7D9FF0138F8
:10052000A8420AD201F10108E5E7AB4205D98845A6
:1005300001D04E1EDFE74FF000094846BDE8F883C2
:10054000012807D0022807D0044B00280CBF18460A
:10055000002070470248704702487047190C000895
:100560001D0C0008210C000830B5234B83B0044655
:100570008D1E3BB301A92846AFF30080E8B1019975
:100580002A46FFF7AFFF0146B8B1FFF7A1FF4B685E
:10059000A064012B2CD0002B01F1040024DBFFF719
:1005A00097FF0023C4E913030368002B11DBFFF757
:1005B0008FFF2061002003B030BD0023092023619C
:1005C00003B030BD0D4B0E49C91AC9101846019130
:1005D000D6E7C3F30360FFF7B3FF0028206114BF21
:1005E0000020092003B030BD0123C4E91303DBE779
:1005F000002323610520DEE70000000008660008F4
:10060000D06600080368DA0710B5044606D49B07D5
:1006100000F1480009D500F05BFC2368590709D5B3
:100620001A070ED5DB0613D510BD00F049FC236870
:100630005907F5D404F1D00000F052FC23681A07E2
:10064000F0D404F5A87000F053FC2368DB06EBD46B
:1006500004F5E870BDE8104000F08EBC092070473A
:100660000346006800B11844704700BF704700BFE0
:1006700070B504460E46316C2046FFF775FF0546FF
:1006800088B9326C6261236932462146012098475D
:100690000828F0D0072806D12846316CFFF7E6FF7E
:1006A000301D00F001FC05F0E1FB00BF2DE9F04733
:1006B0000D1DD0F80C80D0F81890074614460FCDC9
:1006C000ADF5727D0DF10C0CACE80F000FCDACE870
:1006D0000F000FCDACE80F0095E80F0002AE4FF011
:1006E000000E8CE80F00C6F800E020E0336C7B6160
:1006F0004FF4F07231467AA800F056FE3B697AAAB0
:10070000394650469847889B73642146CDE9006975
:1007100005463B463A460120C0470446E0B94FF43F
:10072000F0727AA9304600F03FFE082D1AD1316CE4
:100730003846FFF719FF09345FFA84FA05460028A6
:10074000D4D0B36B73643A46CDE900693B464AF0B6
:1007500010010120C04700B1092528460DF5727D22
:10076000BDE8F087072DF7D12046316CFFF77EFFFB
:1007700003A800F099FB00BF406C7047F0B5CB6B4D
:100780000B6401F1040C0E460546BCE80F00F9B0FD
:1007900001AC0FC4BCE80F000FC4BCE80F000FC4CD
:1007A0009CE80F004FF0FF3784E80F00009706E049
:1007B0002B696A46294698470828044608D11099AB
:1007C0002846FFF7D1FE0028F2D0092079B0F0BD0D
:1007D0006846FFF717FF062CF7D131462846FFF78A
:1007E00047FF00BFC160D96B8261196400221946BE
:1007F0005CE700BF70B5C66843690B64AEB90369B6
:100800000A4604460D46014602209847072805D0AF
:1008100008280FD129462046FFF72AFF3046296CC9
:10082000FFF724FF281D00F03FFB0122FFF73EFFEA
:1008300005F01CFB05F01AFBC2681AB1CA6B0A640A
:10084000002233E79AE700BF704700BF8368014684
:100850000BB1012018477047012912D009D873B98C
:100860000F2A0CD800EB820218465368009A1360D6
:1008700070470339012994BF0120022070470220EC
:1008800070470846704700BF00B585B00A46002390
:1008900003A900911946FFF7DFFF039805B05DF843
:1008A00004FB00BF012912D009D873B90F2A0CD854
:1008B00000EB8200009A12684260184670470339C4
:1008C000012994BF0120022070470220704708468A
:1008D000704700BF10B584B0002303AC03920094AE
:1008E0000A461946FFF7DEFF04B010BD70B5D36BA2
:1008F000136402F1040C05460C46BCE80F00ADF58C
:100900000E7D0DF15C0EAEE80F00BCE80F00AEE806
:100910000F00BCE80F00AEE80F009CE80F004FF09E
:10092000FF368EE80F00169610E0FFF7D3FF214642
:1009300016A8A847034616AA6946082083B9049B4F
:100940009847052806460CD0092809D026996846FC
:10095000FFF70AFE03466A460C2116A8002BE4D0D6
:10096000092616A8FFF74EFE30460DF50E7D70BD28
:100970002DE9F04FCC6C89B01E4654F8043B069428
:100980000D46174600F00308002E79D01A0C1B0400
:1009900005938DF81D200223D2B204EB82048DF85A
:1009A0001C302B6DB8F1020F08BFAC6B13F00103C4
:1009B0000CD005A9384600F079FB18B9082009B019
:1009C000BDE8F08F092009B0BDE8F08FD4F800A091
:1009D000BAF1000FEDD0019300F008030293022E4C
:1009E0004AD0B4F800A0B4F802900434AB6C29F0FB
:1009F000010B0F2138469B44FFF746FF834539D84A
:100A00002AF001039B44834594BF002001204FEA54
:100A1000490303F002030AF0010A43EA0A03012B27
:100A200049D0022B32D0002BCCD1B8F1000F02D02C
:100A3000002840F0CD800434D4F800A0BAF1000FB3
:100A4000CDD105A9384600F031FB0028BAD1019B71
:100A5000002BB3D00F213846FFF716FF0E210246B8
:100A60003846FFF737FF38466A4A0F21FFF732FF53
:100A70000720A8E70020CAE7D4F804900834B5E7B7
:100A80001B0205930323ADF81C308AE7236823F08B
:100A9000004BB8F1000F45D128B1029A002A5CD072
:100AA000BBF1000F74D0002B00DA04340BF1010B02
:100AB00004EB8B04C0E7B8F1000F19D1B0B1636843
:100AC0002268991C4FEAD2723FF47CAF05F15801BD
:100AD0000133049100F09080201DFFF7C1FD04ABAD
:100AE00001462846AFF3008000285BD10834A3E715
:100AF0000D213846D5F82090FFF7C6FE8145F5D187
:100B0000AB6A9C42F2D12046FFF7E2FC0F2102467D
:100B10003846FFF7DFFE38462A460021FFF7DAFEA7
:100B2000072050E70D213846D5F82090FFF7ACFE9E
:100B3000814501D02368B6E7AB6A9C42FAD1042311
:100B40000022C5E90B23E318C5F828B06B632368BE
:100B5000002B59DB01230193A8E705F15803CDF8D9
:100B60000C8004F1040AB04691461E460EE0504641
:100B70000496FFF775FD0022014604AB284609F1F3
:100B800001090AF1040AAFF30080E0B9D945EED1BA
:100B90000D213846FFF778FE049BAC62C5E90803D7
:100BA000062010E781460D213846FFF76DFEB9F1AA
:100BB000020F286225D12B46049A43F82C2F6B6232
:100BC000AC620620FFE646462368DDF80C806AE743
:100BD0002046FFF77DFC04340246AC6328461446E9
:100BE000AFF3008000283FF4EDAE384622460F21D7
:100BF000FFF770FE0720E6E60D213846FFF744FEBA
:100C00002862049B6B62DBE70BF1010004EB8000C0
:100C10007AE700BF000000000023A9E60123A7E651
:100C20000223A5E62DE9F0430646C3B015461C464F
:100C3000042900F2BF80DFE801F09E57BD2D0300BC
:100C4000002C40F0B780102A00F2B4800368D80668
:100C500000F1F98020AF384600F098F9B46B3946BE
:100C600000234FF0010C0CFA03F22A42204603F154
:100C7000010303D050F8042B0A600446042B01F151
:100C80000401F0D13846B46300F076F9002043B097
:100C9000BDE8F083032C40F08D8094B204EB124346
:100CA000102B4FEA124500F2858003681F0700F100
:100CB000D28020AF384600F03DF9B26B07EBC5019A
:100CC00054B10B46D01A01EBC401E4001D5843F89F
:100CD000045B8B42FAD122443846B26300F008F933
:100CE000002043B0BDE8F083012C4FEA124895B2D2
:100CF0005CD0052C5ED108EB0509B9F1200F59D85D
:100D0000B8F10F0F79D9A946002D40F08A80B36B56
:100D10006DB320AF4FF0000907EBC807043F03EBAA
:100D2000C50553F8041B47F8041FAB42F9D1B9F1CC
:100D3000000F0FD06F464146102938BF102107EB36
:100D4000C101843903EBC90553F8040B41F8040FC2
:100D5000AB42F9D1012C00F08680B8F10F0FB563DA
:100D600047D9B9F1000F02D0684600F0B9F8002069
:100D700043B0BDE8F083ECB9806B23461FFA82FCD8
:100D80000124371D04FA03F212EA0C0F014604D0C5
:100D900051F8042B47F8232008460133102BF1D1DA
:100DA00015F40055E3D1B063284604E008EB0503D1
:100DB000102B03D9022043B0BDE8F083B8F10F0F28
:100DC000F8D83368DA0706D5304623F0030340F835
:100DD000483B00F079F820AF384600F075F8B36B67
:100DE000002D97D11D460435B563384600F068F8EC
:100DF000BDE720A800F06CF8B3E7B9F1100F40D9B7
:100E0000A9F110093368D90708D523F0010330464A
:100E100043F0020340F8483B00F05EF8B9F1000FE0
:100E200032D033685A0720D4B8F10F0F25D96F4656
:100E30003846C8F1100500F057F8002DB36B7FF766
:100E40007AAF20AF68E723F01003336006F5E8704F
:100E500000F09CF8FEE623F00803036000F5A8709C
:100E600000F068F825E720AFBDE7304623F0040323
:100E700040F8D03B00F038F8D6E720A800F02CF876
:100E8000D5E74FF00009BDE7B8F10F0F3FF63FAFD0
:100E900020AF384600F020F8B36B002D7FF43AAF56
:100EA000384600F015F862E700F1340191E83800A7
:100EB0009C46A6464CF8045D90E8FF0FE54600BD51
:100EC00090EC210B704700BF80EC210B704700BFF6
:100ED00090EC200B704700BF80EC200B704700BFE8
:100EE000D0EC200B704700BFC0EC200B704700BF58
:100EF000F0EC0201F0EC0211F0EC0221F0EC023116
:100F0000F0EC0241F0EC0251F0EC0261F0EC027105
:100F1000F0EC0281F0EC0291F0EC02A1F0EC02B1F5
:100F2000F0EC02C1F0EC02D1F0EC02E1F0EC02F1E5
:100F3000704700BFE0EC0201E0EC0211E0EC02219E
:100F4000E0EC0231E0EC0241E0EC0251E0EC026145
:100F5000E0EC0271E0EC0281E0EC0291E0EC02A135
:100F6000E0EC02B1E0EC02C1E0EC02D1E0EC02E125
:100F7000E0EC02F1704700BFB0FC0181B0FC0191D0
:100F8000B0FC01A1B0FC01B1704700BFA0FC018121
:100F9000A0FC0191A0FC01A1A0FC01B1704700BF21
:100FA000EC4600B52DE900502DE9FF1F4FF000037E
:100FB0002DE90C0001A9FFF7E1FBDDF840E012B0DC
:100FC000704700BFEC4600B52DE900502DE9FF1F2A
:100FD0004FF000032DE90C0001A9FFF70BFCDDF831
:100FE00040E012B0704700BFEC4600B52DE900505C
:100FF0002DE9FF1F4FF000032DE90C0001A9FFF7B9
:101000001BFCDDF840E012B0704700BFEC4600B5B5
:101010002DE900502DE9FF1F4FF000032DE90C00D2
:1010200001ABFFF7DFFBDDF840E012B0704700BF17
:10103000EC4600B52DE900502DE9FF1F4FF00003ED
:101040002DE90C0001AAFFF751FCDDF840E012B0D9
:10105000704700BF027A03467AB9427AA2B141686A
:10106000013A10B44272086803220C1D1A7202027F
:101070005C60000E10BC1A6070470068013A1A727A
:1010800002021A60000E7047B020704700B585B0AC
:10109000002303AA009219460C22FFF7DDFB0398F8
:1010A00005B05DF804FB00BFF0E700BF2DE9F04399
:1010B000054685B00E464FF000083046FFF7CAFFE0
:1010C000B028044600F0BA80070620D500F0F003EF
:1010D000802B4DD0902B36D0A02B60D0B02B74D06D
:1010E000C02B00F08B8000F0F803D02B0BD100F068
:1010F00007020132052342F4002201212846FFF7AE
:1011000091FD0028D9D0092005B0BDE8F083830007
:10111000DBB21F1D0DF10C0900231946CDF800901C
:101120000D222846FFF798FB039BCDF80090600640
:101130004CBFDF1BFF1800230D22194628460397DA
:10114000FFF7B0FBB9E700F00D030D2BDBD003AFC9
:10115000002300F00F02194600972846FFF77CFB9A
:10116000002300970D2219462846FFF79BFBA4E7B2
:101170003046FFF76FFF24022043B0F5004FC2D086
:1011800004010023A2B219462846FFF74BFD0028B0
:10119000B9D114F4004F18BF4FF001088DE7C243D6
:1011A00002F007034FF47F621A41010702F47F62E5
:1011B0004FF0000348BF42F4804219462846FFF72B
:1011C00031FD00283FF479AF9DE7B1283BD0B2282C
:1011D00000F09380B32841D000F0FC03B42B92D0F0
:1011E00000F007020132012342F40022194628468A
:1011F000FFF718FD00283FF460AF84E7C6284AD007
:10120000C72854D000F0F803C02B63D0C82868D09A
:10121000C9287FF478AF3046FFF71CFF020300F0C7
:101220000F0002F4702201300243012105232846F9
:10123000FFF7F8FC00283FF440AF64E7B8F1000F77
:1012400018D0002060E73046FFF704FF0246002870
:101250003FF459AF10F0F003C8D054E73046FFF721
:10126000F9FE020300F00F03013302F470221A4367
:101270000123BBE703AC43460E22414600942846B7
:10128000FFF7EAFA009443460F2241462846FFF74B
:1012900009FB404638E73046FFF7DCFE020300F06A
:1012A0000F03013302F470221A4303239EE73046F2
:1012B000FFF7D0FE024600283FF425AF10F0F00300
:1012C0007FF421AF04212846FFF7ACFC00283FF44F
:1012D000F4AE18E700F00F020132032342F420229B
:1012E00084E73046FFF7B6FE00F0F00200F00F038F
:1012F0001032013343EA023297E700230DF10C0963
:101300000D221946CDF800902846FFF7A5FA304681
:10131000FFF7A0FE02064FF002040CD5039B00F07D
:101320007F00A040184403903046FFF793FE030669
:1013300004F10704F2D4039BCDF8009000F07F0283
:10134000A24003F501731A440023039219460D22AB
:101350002846FFF7A7FAB0E610B5C26C536884B010
:101360004FF0030C08321C0208461B0E01A9019421
:1013700002928DF80CC08DF80D30FFF797FE04B087
:1013800010BD00BF08B5FFF78FFE806C08BD00BF21
:1013900008B5FFF789FEC06CC379023300EB830008
:1013A00008BD00BF704700BF844641EA000313F048
:1013B00003036DD1403A41D351F8043B40F8043B5C
:1013C00051F8043B40F8043B51F8043B40F8043B1F
:1013D00051F8043B40F8043B51F8043B40F8043B0F
:1013E00051F8043B40F8043B51F8043B40F8043BFF
:1013F00051F8043B40F8043B51F8043B40F8043BEF
:1014000051F8043B40F8043B51F8043B40F8043BDE
:1014100051F8043B40F8043B51F8043B40F8043BCE
:1014200051F8043B40F8043B51F8043B40F8043BBE
:1014300051F8043B40F8043B403ABDD2303211D35E
:1014400051F8043B40F8043B51F8043B40F8043B9E
:1014500051F8043B40F8043B51F8043B40F8043B8E
:10146000103AEDD20C3205D351F8043B40F8043B5E
:10147000043AF9D2043208D0D2071CBF11F8013B5C
:1014800000F8013B01D30B8803806046704700BF22
:10149000082A13D38B078DD010F003038AD0C3F131
:1014A0000403D21ADB071CBF11F8013B00F8013B13
:1014B00080D331F8023B20F8023B7BE7043AD9D3D2
:1014C000013A11F8013B00F8013BF9D20B780370A7
:1014D0004B7843708B7883706046704708B503681B
:1014E000094A1268934204D0084A1268934205D010
:1014F00008BD074B186802F0AEFDF9E7054B186808
:1015000002F0A9FDF4E700BF480B0020000B00200B
:10151000740800208008002010B582B000240194D7
:101520000D4B1A6B42F480021A631B6B03F48003A9
:101530000193019B22460521392000F0CDFE392080
:1015400000F002FF224605213A2000F0C5FE3A20B5
:1015500000F0FAFE02B010BD0038024008B50120CC
:1015600002F011FDFBE708B5012002F00CFDFBE7DE
:1015700008B5012002F007FDFBE708B5012002F0E5
:1015800002FDFBE708B5154A0021012002F009FD24
:10159000134B1860134A0021012002F002FD124B88
:1015A0001860124A0021124802F08EFC114B18609C
:1015B000114A0021114802F087FC114B1860114AB2
:1015C0000021114802F080FC104B1860104A0021E5
:1015D000104802F079FC104B186008BDF864000850
:1015E0007408002050650008800800202C65000861
:1015F0005D1500087C0800200865000867150008D4
:101600007808002060650008711500088408002033
:10161000846500087B15000888080020F0B58BB0B1
:101620000024059406940794089409940194244B8B
:101630001A6B42F080021A631A6B02F08002019268
:10164000019A02941A6B42F004021A631A6B02F0B8
:1016500004020292029A03941A6B42F001021A6386
:101660001A6B02F001020392039A04941A6B42F07F
:1016700002021A631B6B03F002030493049B114FD5
:1016800022460421384601F07BF90F4D22463021D5
:10169000284601F075F90423059301260696079460
:1016A000089405A9384601F079F830230593069689
:1016B0000794089405A9284601F070F80BB0F0BD16
:1016C00000380240000802400004024008B50268E9
:1016D000034B9A4200D008BD00F0DAFDFBE700BFE3
:1016E0000014004072B6FEE700B595B0302200212C
:1016F00008A804F0EDFB00230393049305930693DD
:1017000007930193204A116C41F080511164126CCF
:1017100002F080520192019A02931C4B1A6842F423
:1017200080421A601B6803F480430293029B0123EA
:1017300008934FF48033099302220E924FF48003F2
:101740000F9304231093A82111911292139308A8C8
:1017500001F01CF998B90F2303930223049300238B
:1017600005934FF4A05306934FF48053079305213C
:1017700003A801F071FB20B915B05DF804FBFFF779
:10178000B1FFFFF7AFFF00BF00380240007000401C
:1017900008B5124B01221A60114A936823F0030323
:1017A000936000F05BFDFFF79FFFFFF737FFFFF748
:1017B000B3FE00F05FFC00F043FC00F007FA00F01D
:1017C000ADFA00F019FB00F0FBFB00F0A3FB02F008
:1017D0004DFBFFF7D7FE02F05BFBFEE70000474240
:1017E0000038024000B583B0002200920D4B596CC6
:1017F00041F480415964596C01F480410091009991
:101800000192196C41F0805119641B6C03F08053F4
:101810000193019B0F216FF0010000F05DFD03B00B
:101820005DF804FB0038024030B589B0044600235F
:101830000193214B1A6C42F020021A641B6C03F0D6
:1018400020030193019B02A903A801F0DBFB069B87
:10185000CBB901F0B7FB03461848A0FB03239B0C50
:10186000013B1748174A026040F2E732C26043600A
:10187000002303618360836101F00AFE054630B1F5
:10188000284609B030BD01F09DFB4300E4E70C4859
:1018900001F09AFC05460028F2D1372000F054FDF3
:1018A0000F2C01D90125EBE700222146372000F05B
:1018B00013FD054B1C60E3E70038024083DE1B4349
:1018C0008C0800200014004008000020FEE7FEE71E
:1018D000FEE7FEE7FEE7704708B5024802F076F93A
:1018E00008BD00BF000B002008B5024801F0B4FCA1
:1018F00008BD00BF8C08002008B5024800F060FE5B
:1019000008BD00BFA00A002008B5024800F058FE3C
:1019100008BD00BF400A002008B5024802F056F991
:1019200008BD00BF480B00200120704708B504F037
:10193000A5FA162303604FF0FF3008BD08B54FF03D
:10194000FF31FFF7F3FFFEE710B503460C4A0D49E0
:101950000D48006840B10C4800680344521A934295
:1019600006D8094A136010BD0748084C0460F2E726
:1019700004F084FA0C2303604FF0FF30F3E700BF5C
:101980000000022000040000D4080020805D002038
:10199000034AD2F8883043F47003C2F888307047A5
:1019A00000ED00E084B00368184A934207D0B3F119
:1019B000804F11D0164A93421BD004B070470023C9
:1019C0000193144B5A6C42F001025A645B6C03F0B1
:1019D00001030193019BF0E7002302930D4B1A6C66
:1019E00042F001021A641B6C03F001030293029B94
:1019F000E3E700230393074B1A6C42F002021A64D8
:101A00001B6C03F002030393039BD6E70000014025
:101A1000000400400038024082B00368104A93423C
:101A200004D0104A93420ED002B0704700230093B6
:101A30000D4B1A6C42F004021A641B6C03F0040391
:101A40000093009BF0E700230193074B1A6C42F0D0
:101A500040021A641B6C03F040030193019BE3E70F
:101A600000080040001800400038024030B58DB03A
:101A700000230793089309930A930B9303684C4A36
:101A800093420DD0B3F1804F22D04A4A934236D0D0
:101A9000494A93425DD0494A934271D00DB030BD5E
:101AA00000230193464B1A6B42F001021A631B6B31
:101AB00003F001030193019B4FF47063079302232A
:101AC000089301230B9307A93E4800F067FEE5E762
:101AD000002302933A4B1A6B42F001021A631B6B0C
:101AE00003F001030293029B0C2307930223089344
:101AF00001230B9307A9334800F050FECEE70025E1
:101B000003952F4B1A6B42F001021A631A6B02F015
:101B100001020392039A04951A6B42F002021A63BF
:101B20001B6B03F002030493049BC023079302245E
:101B300008940B9407A9234800F030FE0323079371
:101B4000089409950A950B9407A91F4800F026FEF2
:101B5000A4E7002305931A4B1A6B42F002021A63A2
:101B60001B6B03F002030593059B4FF4407307932F
:101B7000022308930B9307A9134800F00FFE8DE78B
:101B8000002306930E4B1A6B42F002021A631B6B82
:101B900003F002030693069B4FF44043079302238E
:101BA000089309230B9307A9074800F0F7FD75E791
:101BB0000000014000040040000800400018004000
:101BC00000380240000002400004024010B596B008
:101BD000002412941394149415941094119409945D
:101BE0000A940B940C940D940E940F942022214689
:101BF00001A804F06DF94748474B0360A7234360F1
:101C0000846044F61F63C36004614461846101F031
:101C10003FFC002863D14FF48053129312A93D4832
:101C200001F041FD00285DD13A4801F05DFC00283B
:101C30005BD100231093119310A9364801F0B2FD37
:101C4000002855D1602309934FF4FA730A930022B8
:101C50000B920C920D920E920F9209A92D4801F051
:101C6000A7FC002847D12B480268936923F008039A
:101C70009361042209A901F09BFC00283ED125486C
:101C80000268936923F400639361082209A901F0B3
:101C90008FFC002835D11F480268D36923F0080360
:101CA000D3610C2209A901F083FC68BB19480268C2
:101CB000D36923F40063D361002301930293039358
:101CC000049305934FF400520692089301A901F082
:101CD000AFFDE0B90F48FFF7C9FE16B010BDFFF722
:101CE00001FD98E7FFF7FEFC9EE7FFF7FBFCA0E78E
:101CF000FFF7F8FCA6E7FFF7F5FCB4E7FFF7F2FC07
:101D0000BDE7FFF7EFFCC6E7FFF7ECFCCEE7FFF718
:101D1000E9FCDFE7D80800200000014000B58FB0E3
:101D200000230A930B930C930D930893099301934B
:101D30000293039304930593069307932D484FF062
:101D40008042026006224260836047F22F52C260E6
:101D50000361836101F09CFB002839D14FF480536B
:101D60000A930AA9234801F09EFC002833D1214898
:101D700001F0BAFB002831D100230893099308A988
:101D80001C4801F00FFD60BB6023019340F6CA03BD
:101D90000293002303930593082201A9154801F03B
:101DA00007FC08BB13480268D36923F00803D3611A
:101DB0000C2201A901F0FCFBC8B90E480268D369E6
:101DC00023F40063D361FFF751FE0FB05DF804FB0D
:101DD000FFF788FCC2E7FFF785FCC8E7FFF782FC46
:101DE000CAE7FFF77FFCCFE7FFF77CFCDAE7FFF7F6
:101DF00079FCE2E76809002000B58FB000230A9360
:101E00000B930C930D9308930993019302930393FF
:101E100004930593069307933C483D4A02600622CB
:101E20004260836047F22F52C2600361836101F018
:101E30002FFB002851D14FF480530A930AA933484D
:101E400001F031FC00284BD1304801F04DFB002857
:101E500049D100230893099308A92C4801F0A2FC5A
:101E6000002843D16023019340F6CA030293002265
:101E70000392059201A9254801F09AFB002838D168
:101E800022480268936923F00803936104220DEB52
:101E9000020101F08DFB78BB1C480268936923F4B2
:101EA00000639361082201A901F082FB38BB174847
:101EB0000268D36923F00803D3610C2201A901F061
:101EC00077FBF8B911480268D36923F40063D36142
:101ED000FFF7CCFD0FB05DF804FBFFF703FCAAE7AA
:101EE000FFF700FCB0E7FFF7FDFBB2E7FFF7FAFBF7
:101EF000B8E7FFF7F7FBC3E7FFF7F4FBCCE7FFF723
:101F0000F1FBD4E7FFF7EEFBDCE700BFB0090020F0
:101F10000004004000B58BB000230893099301939F
:101F20000293039304930593069307932248234A4D
:101F30000260A7224260836044F61F62C2600361B0
:101F4000836101F0D1FA58BB00230893099308A9D3
:101F5000194801F027FC30BB602301934FF4FA735A
:101F60000293002303930593082201A9124801F06C
:101F70001FFBD8B910480268D36923F00803D36166
:101F80000C2201A901F014FB98B90B480268D3692F
:101F900023F40063D361FFF769FD0BB05DF804FB28
:101FA000FFF7A0FBD0E7FFF79DFBD5E7FFF79AFB14
:101FB000E0E7FFF797FBE8E7F8090020000800409A
:101FC00000B589B000230193029303930493059312
:101FD000069307931848194A0260062242608360FC
:101FE00047F23052C2600361836101F07DFAC8B9E3
:101FF0006023019340F6CA030293002203920592E4
:1020000001A90D4801F0D4FA78B904220DEB0201C0
:10201000094801F0CDFA58B90748FFF727FD09B084
:102020005DF804FBFFF75EFBE2E7FFF75BFBECE725
:10203000FFF758FBF0E700BF200900200018004020
:1020400008B50A480A4B03604FF4E13343600023AC
:102050008360C36003610C2242618361C36101F04C
:10206000F9FC00B908BDFFF73DFBFBE7000B0020C2
:102070000010014008B50A480A4B03604FF4612381
:10208000436000238360C36003610C22426183616B
:10209000C36101F0DFFC00B908BDFFF723FBFBE7DC
:1020A000480B00200014014030B58BB004460023DB
:1020B000059306930793089309930368494A93424B
:1020C00004D0494A934247D00BB030BD002501955A
:1020D000464B5A6C42F010025A645A6C02F01002DD
:1020E0000192019A02951A6B42F002021A631B6B6D
:1020F00003F002030293029BC0230593022306937D
:10210000032308930723099305A9394800F046FBE8
:102110003848394B03604FF0006343608560C56009
:102120004FF480630361456185614FF48073C3613F
:102130000562456200F080F958B92E4BE3639C6359
:1021400000220521252000F0C7F8252000F0FCF82A
:10215000BAE7FFF7C7FAF0E700250395234B5A6C5F
:1021600042F020025A645A6C02F020020392039A51
:1021700004951A6B42F004021A631B6B03F004030C
:102180000493049BC023059302230693032308931F
:102190000823099305A9194800F000FB1848194BBA
:1021A00003604FF0206343608560C5604FF4806337
:1021B0000361456185614FF48073C36105624562C7
:1021C00000F03AF958B90E4BE3639C6300220521F5
:1021D000472000F081F8472000F0B6F874E7FFF7D9
:1021E00081FAF0E70010014000140140003802407D
:1021F00000040240400A00204064024000080240FF
:10220000A00A002028640240DFF834D00D480E49AF
:102210000E4A002302E0D458C4500433C4188C4240
:10222000F9D30B4A0B4C002301E013600432A242A5
:10223000FBD3FFF7ADFB03F027FEFFF7A9FA7047CA
:10224000000002200000002054080020DC66000886
:10225000580800207C5D0020FEE7000008B50B4B0D
:102260001A6842F400721A601A6842F480621A60B6
:102270001A6842F480721A60032000F01BF80F20E5
:10228000FFF7D2FAFFF7AEFA002008BD003C02408B
:10229000034A1168034B1B780B441360704700BF5F
:1022A000900B002004000020014B1868704700BF0D
:1022B000900B0020074AD36823F4E0631B041B0C37
:1022C000000200F4E060034343F0BF6343F40033D3
:1022D000D360704700ED00E000B5194BDB68C3F335
:1022E0000223C3F1070CBCF1040F28BF4FF0040C0C
:1022F00003F1040EBEF1060F18D9033B4FF0FF3E69
:102300000EFA0CFC21EA0C0199400EFA03F322EAC2
:102310000303194300280BDB0901C9B200F1604037
:1023200000F5614080F800135DF804FB0023E5E749
:1023300000F00F000901C9B2024B1954F4E700BFC5
:1023400000ED00E014ED00E0002807DB00F01F02C4
:10235000400901239340024A42F82030704700BFF1
:1023600000E100E010B40368D9B210390C4AA2FBB6
:10237000014212090B4CA25CC2655F2909D923F402
:102380007F7323F0030304338365806D5DF8044B92
:10239000704723F47F7323F003038365F5E700BFE1
:1023A000ABAAAAAAC0650008836A826992B9012B08
:1023B0000AD0022B02D00BB100207047C36A13F081
:1023C000807F28D100207047C36AB3F1C07F24D03A
:1023D00000207047B2F5005F09D0022B25D9032BEE
:1023E00025D1C36A13F0807F23D100207047032BCF
:1023F00003D8DFE803F01404140A00207047C36A0E
:1024000013F0807F0DD100207047C36AB3F1C07F05
:1024100009D000207047012070470120704701203B
:10242000704701207047012070470120704700204D
:10243000704701207047000070B50446FFF734FF75
:10244000002C5BD00546022384F83530002384F845
:1024500034302268136823F00103136023681A687C
:1024600012F0010F0AD0FFF71FFF431B052BF5D910
:1024700020236365032084F8350070BD1A68204866
:1024800010406168A2680A43E1680A4321690A436F
:1024900061690A43A1690A43E1690A43216A0A435F
:1024A0000243616A04291ED01A602668756925F006
:1024B0000705636A1D43042B07D1A36A1D43E36A22
:1024C0001BB12046FFF770FF90B975612046FFF7FA
:1024D00049FFE26D3F239340836000206065012344
:1024E00084F83530C9E7E16A206B01430A43DBE732
:1024F00040236365012084F83500BEE70120BCE776
:102500003F8010F070B50446866DFFF7CDFE94F85D
:102510003530DBB2022B06D080236365002384F8BC
:102520003430012070BD05462268136823F016037D
:1025300013602268536923F080035361236CE3B175
:102540002268136823F0080313602268136823F0DD
:102550000103136023681B6813F0010F11D0FFF70C
:10256000A3FE431B052BF5D920236365032084F8C4
:102570003500002384F83430D4E7A36C002BDFD17E
:10258000E3E7E26D3F239340B360012384F83530E5
:10259000002084F83400C5E790F83530DBB2022B18
:1025A00003D08023436501207047052380F8353030
:1025B0000268136823F001031360002070470000D5
:1025C000F0B583B0044600230193724B1D68724B33
:1025D000A3FB0535AD0A876D3E68C26D08239340A5
:1025E000334210D003681A6812F0040F0BD01A6837
:1025F00022F004021A60C26D08239340BB60436D51
:1026000043F001034365E26D01239340334209D057
:102610002268526912F0800F04D0BB60636D43F0F2
:1026200002036365E26D04239340334209D02268BC
:10263000126812F0020F04D0BB60636D43F0040314
:102640006365E26D10239340334224D02268126800
:1026500012F0080F1FD0BB6023681A6812F4802F95
:102660000DD01B6813F4002F04D1236C9BB12046BE
:10267000984710E0A36C73B1204698470BE01A68A6
:1026800012F4807F03D11A6822F008021A60236CCA
:102690000BB120469847E26D20239340334255D03A
:1026A0002268126812F0100F50D0BB6094F83530D9
:1026B000DBB2052B0ED023681A6812F4802F33D0BA
:1026C0001B6813F4002F2AD1636C002B3ED02046E8
:1026D00098473BE02268136823F0160313602268D2
:1026E000536923F080035361236CA3B122681368FC
:1026F00023F008031360E26D3F239340BB60012386
:1027000084F83530002384F83430236D002B3FD01B
:10271000204698473CE0A36C002BE7D1EBE7E36B46
:10272000A3B12046984711E01A6812F4807F09D1BE
:102730001A6822F010021A60012384F83530002351
:1027400084F83430E36B0BB120469847636DFBB1DE
:10275000636D13F0010F17D0052384F8353022681C
:10276000136823F001031360019B01330193AB4213
:1027700004D823681B6813F0010FF5D1012384F8F6
:102780003530002384F83430E36C0BB12046984791
:1027900003B0F0BD00000020B5814E1B00230F2BBD
:1027A00000F2E48070B582B060E085685E000324CA
:1027B000B44025EA0405CC68B4402C4384604568E5
:1027C00025EA02054C68C4F300129A402A4342608D
:1027D0005AE0DC08083450F8246003F00702950042
:1027E0000F22AA4026EA020E0A69AA4042EA0E0215
:1027F00040F824205CE0072200E0002202FA0EF2FA
:102800002A4302345A4D45F824205A4A94686FEA04
:102810000C0224EA0C054E6816F4801F01D04CEA25
:102820000405544CA560E46802EA04054E6816F4F9
:10283000001F01D04CEA04054E4CE560646802EAD2
:1028400004054E6816F4003F01D04CEA0405494CDB
:102850006560246822404D6815F4803F01D04CEA41
:102860000402444C226001330F2B7DD801229A4090
:102870000C6804EA020C32EA0404F4D14C6804F057
:102880000304013C012C90D94A6802F00302032A98
:1028900009D0C4685D000322AA4024EA02048A68C1
:1028A000AA402243C2604A6802F00302022A90D082
:1028B00004684FEA430E032202FA0EF224EA0204ED
:1028C0004A6802F0030202FA0EF2224302604A68EA
:1028D00012F4403FC7D000220192274A546C44F4BE
:1028E00080445464526C02F480420192019A9C0824
:1028F000A51C1F4A52F8255003F003024FEA820E2E
:102900000F2202FA0EF225EA02051C4A90423FF419
:1029100074AF02F5806290421AD002F58062904254
:1029200018D002F58062904216D002F58062904283
:1029300014D002F58062904212D002F5806290427B
:1029400010D002F5806290423FF455AF082255E75F
:10295000012253E7022251E703224FE704224DE709
:1029600005224BE7062249E702B070BD704700BF61
:1029700000380140003C01400038024000000240A5
:102980000AB181617047090481617047002800F035
:10299000E08170B582B00446036813F0010F3BD0AC
:1029A0009F4B9B6803F00C03042B2CD09C4B9B6823
:1029B00003F00C03082B21D06368B3F5803F4FD0A0
:1029C000B3F5A02F52D0964B1A6822F480321A60C9
:1029D0001A6822F480221A606368002B50D0FFF737
:1029E00063FC05468E4B1B6813F4003F14D1FFF7C0
:1029F0005BFC401B6428F5D90320B1E1884B5B6880
:102A000013F4800FD8D0864B1B6813F4003F03D01B
:102A10006368002B00F09F81236813F0020F54D0ED
:102A20007F4B9B6813F00C0F3ED07D4B9B6803F0EF
:102A30000C03082B33D0E368002B68D0794B0122BC
:102A40001A60FFF731FC0546754B1B6813F0020F47
:102A500054D1FFF729FC401B0228F5D903207FE160
:102A60006F4A136843F480331360B5E76C4B1A6800
:102A700042F480221A601A6842F480321A60ABE78E
:102A8000FFF712FC0546664B1B6813F4003FC3D0EA
:102A9000FFF70AFC401B6428F5D9032060E1604B76
:102AA0005B6813F4800FC6D15D4B1B6813F0020FF7
:102AB00003D0E368012B40F05081594A136823F09A
:102AC000F803216943EAC1031360236813F0080F78
:102AD00042D063696BB3534B0122C3F8802EFFF7DA
:102AE000E3FB05464E4B5B6F13F0020F34D1FFF74B
:102AF000DBFB401B0228F5D9032031E1484A13686B
:102B000023F0F803216943EAC1031360DDE7454B75
:102B100000221A60FFF7C8FB0546414B1B6813F003
:102B2000020FD2D0FFF7C0FB401B0228F5D90320CB
:102B300016E13C4B0022C3F8802EFFF7B5FB05469B
:102B4000374B5B6F13F0020F06D0FFF7ADFB401B56
:102B50000228F5D9032003E1236813F0040F77D08E
:102B60002F4B1B6C13F0805F33D1002301932C4B50
:102B70001A6C42F080521A641B6C03F0805301936C
:102B8000019B0125284B1B6813F4807F23D0A36889
:102B9000012B34D0052B38D0214B1A6F22F00102C3
:102BA0001A671A6F22F004021A67A368002B3DD03F
:102BB000FFF77AFB06461A4B1B6F13F0020F46D144
:102BC000FFF772FB801B41F288339842F3D9032050
:102BD000C6E00025D6E7144A136843F480731360F7
:102BE000FFF762FB0646104B1B6813F4807FCED1C3
:102BF000FFF75AFB801B0228F5D90320B0E0084AF2
:102C0000136F43F001031367CFE7054B1A6F42F0D0
:102C100004021A671A6F42F001021A67C5E700BF83
:102C2000003802400000474200700040FFF73CFBC4
:102C30000646524B1B6F13F0020F08D0FFF734FB10
:102C4000801B41F288339842F3D9032088E0EDB924
:102C5000A369002B00F08380484A926802F00C02BE
:102C6000082A51D0022B17D0454B00221A66FFF7D5
:102C70001BFB0446414B1B6813F0007F42D0FFF75B
:102C800013FB001B0228F5D9032069E03B4A136CB3
:102C900023F080531364DBE7394B00221A66FFF7F9
:102CA00003FB0546354B1B6813F0007F06D0FFF78A
:102CB000FBFA401B0228F5D9032051E0E369226AA0
:102CC0001343626A43EA8213A26A5208013A43EA52
:102CD0000243E26A43EA0263284A5360284B012216
:102CE0001A66FFF7E1FA0446244B1B6813F0007FD5
:102CF00006D1FFF7D9FA001B0228F5D903202FE0EF
:102D000000202DE000202BE0012B2BD01B4B5B681B
:102D100003F48001E269914226D103F03F02216A67
:102D20008A4223D1616A47F6C0721A40B2EB811F12
:102D30001ED103F44031A26A5208013AB1EB024FAE
:102D400018D103F07063E26AB3EB026F14D1002074
:102D500006E001207047012002E0012000E0002091
:102D600002B070BD0120FBE70120F9E70120F7E781
:102D70000120F5E70120F3E70120F1E700380240E8
:102D80000000474208B5314B9B6803F00C03042B4D
:102D900057D0082B57D12D4B5A6802F03F025B6881
:102DA00013F4800F2AD0294B5968C1F3881C4FEACD
:102DB0004C11B1EB0C006EEB0E0E4FEA8E1343EA92
:102DC00090638101091A63EB0E03DB0043EA517340
:102DD000C90011EB0C0C43F10003590200234FEA28
:102DE0004C2041EADC51FDF7F3F9184B5B68C3F363
:102DF000014301335B00B0FBF3F025E0134B59684E
:102E0000C1F3881C4FEA4C11B1EB0C006EEB0E0EB7
:102E10004FEA8E1343EA90638101091A63EB0E03B4
:102E2000DB0043EA5173C90011EB0C0C43F10003C2
:102E3000990200234FEA8C2041EA9C51FDF7C8F922
:102E4000D3E7034800E0034808BD00BF0038024054
:102E500000127A000024F400002800F09B8070B576
:102E60000D4604464F4B1B6803F007038B4208D204
:102E7000CBB24C4A1370136803F007038B4240F047
:102E80008B80236813F0020F17D013F0040F04D0C7
:102E9000454A936843F4E0539360236813F0080FA6
:102EA00004D0414A936843F4604393603E4A936878
:102EB00023F0F003A1680B439360236813F0010F24
:102EC00032D06368012B21D09A1E012A25D9364AB7
:102ED000126812F0020F61D033498A6822F00302AF
:102EE00013438B60FFF7E0F906462F4B9B6803F016
:102EF0000C036268B3EB820F16D0FFF7D5F9801B85
:102F000041F288339842F0D9032042E0264A126801
:102F100012F4003FE0D101203BE0234A126812F096
:102F2000007FD9D1012034E01E4B1B6803F007035A
:102F3000AB4207D9EAB21B4B1A701B6803F00703B8
:102F4000AB422DD1236813F0040F06D0164A9368C4
:102F500023F4E053E1680B439360236813F0080FF8
:102F600007D0114A936823F46043216943EAC103FF
:102F70009360FFF707FF0C4B9B68C3F303130B4AE7
:102F8000D35CD8400A4B18600A4B1868FEF74CFC1B
:102F9000002070BD012070470120FAE70120F8E70A
:102FA0000120F6E7003C024000380240A865000816
:102FB0000000002008000020014B1868704700BF87
:102FC0000000002008B5FFF7F7FF044B9B68C3F330
:102FD0008223034AD35CD84008BD00BF00380240BA
:102FE000B865000808B5FFF7E7FF044B9B68C3F31B
:102FF0004233034AD35CD84008BD00BF00380240CA
:10300000B86500080F2303600B4B9A6802F00302B7
:1030100042609A6802F0F00282609A6802F4E0521C
:10302000C2609B68DB0803F4E0530361034B1B6839
:1030300003F007030B60704700380240003C024079
:1030400030B4036A026A22F00102026242688469B3
:1030500024F073040D682C4323F0020C8B6843EAC0
:103060000C03104DA84203D005F58065A84205D198
:1030700023F00803CD682B4323F00403094DA84235
:1030800003D005F58065A84205D122F440724D6950
:103090002A438D692A43426084614A68426303621D
:1030A00030BC70470000014030B4036A026A22F469
:1030B000807202624268C46924F0730C0C6844EAAE
:1030C0000C0523F400738C6843EA0423114CA042DE
:1030D00003D004F58064A04206D123F40063CC68D9
:1030E00043EA042323F480630A4CA04203D004F58E
:1030F0008064A04207D122F440524C6942EA041293
:103100008C6942EA04124260C5614A68C263036284
:1031100030BC70470000014030B4036A026A22F4F8
:10312000805202624468C26922F4E6420D6842EAB3
:10313000052223F400538D6843EA0533094DA84264
:1031400003D005F58065A84204D124F480444D697C
:1031500044EA85144460C2614A680264036230BC78
:10316000704700BF0000014010B4036A046A24F0F5
:1031700001040462846924F0F00C4CEA021223F08A
:103180000A030B43826103625DF8044B704710B47D
:10319000036A046A24F010040462846924F4704C05
:1031A0004CEA023223F0A00343EA01138261036276
:1031B0005DF8044B7047836823F070030B4343F0C2
:1031C000070383607047000090F83D30DBB2012BAD
:1031D00037D1022380F83D300268D36843F0010301
:1031E000D3600368194A934220D0B3F1804F1DD0B9
:1031F000A2F57C42934219D002F58062934215D029
:1032000002F58062934211D002F5784293420DD0CC
:1032100002F57052934209D0A2F59432934205D040
:103220001A6842F001021A60002070479A6802F0A2
:103230000702062A07D01A6842F001021A6000202D
:103240007047012070470020704700BF0000014018
:10325000704770477047704770B504460368DE6872
:103260001D6915F0020F10D016F0020F0DD06FF08F
:1032700002021A610123037703689B6913F0030FAD
:103280005ED0FFF7E6FF0023237715F0040F12D07E
:1032900016F0040F0FD023686FF004021A610223A6
:1032A000237723689B6913F4407F4FD02046FFF7B4
:1032B000D0FF0023237715F0080F12D016F0080F67
:1032C0000FD023686FF008021A6104232377236864
:1032D000DB6913F0030F40D02046FFF7BAFF00234D
:1032E000237715F0100F12D016F0100F0FD02368AF
:1032F0006FF010021A61082323772368DB6913F447
:10330000407F31D02046FFF7A4FF0023237715F03C
:10331000010F02D016F0010F2DD115F0800F02D051
:1033200016F0800F2FD115F0400F02D016F0400F8D
:1033300031D115F0200F02D016F0200F33D170BD1F
:10334000FFF786FF2046FFF785FF9CE72046FFF743
:103350007FFF2046FFF77EFFABE72046FFF778FFB1
:103360002046FFF777FFBAE72046FFF771FF2046B8
:10337000FFF770FFC9E723686FF001021A6120466A
:10338000FEF7A4F9C9E723686FF080021A612046AE
:1033900000F078FAC7E723686FF040021A61204610
:1033A000FFF759FFC5E723686FF020021A61204636
:1033B00000F067FAC3E700000368344A904212D075
:1033C000B0F1804F0FD0A2F57C4290420BD002F5B5
:1033D0008062904207D002F58062904203D002F5ED
:1033E0007842904203D123F070034A681343274A7E
:1033F00090422AD0B0F1804F27D0A2F57C42904273
:1034000023D002F5806290421FD002F58062904284
:103410001BD002F57842904217D002F570529042CC
:1034200013D002F5806290420FD002F58062904284
:103430000BD0A2F59832904207D002F580629042FC
:1034400003D002F58062904203D123F44073CA682E
:10345000134323F080034A69134303608B68C362FC
:103460000B688362094B984203D003F5806398424E
:1034700001D10B69036301234361036913F0010F59
:1034800003D0036923F0010303617047000001408A
:1034900040B310B5044690F83D30F3B1022384F8F0
:1034A0003D30214651F8040BFFF786FF012384F8D5
:1034B000463084F83E3084F83F3084F8403084F859
:1034C000413084F8423084F8433084F8443084F842
:1034D000453084F83D30002010BD80F83C30FEF7C8
:1034E00061FADBE70120704740B310B5044690F85D
:1034F0003D30F3B1022384F83D30214651F8040BEE
:10350000FFF75AFF012384F8463084F83E3084F8F0
:103510003F3084F8403084F8413084F8423084F8F9
:10352000433084F8443084F8453084F83D3000203E
:1035300010BD80F83C30FEF76FFADBE701207047E2
:1035400030B4036A026A22F010020262446882699F
:1035500022F4E6420D6842EA052223F020038D683A
:1035600043EA0513114DA84203D005F58065A84232
:1035700006D123F08003CD6843EA051323F040030E
:103580000A4DA84203D005F58065A84207D124F46E
:1035900040644D6944EA85048D6944EA85044460C9
:1035A00082614A688263036230BC70470000014058
:1035B00038B590F83C30012B66D004460D46012307
:1035C00080F83C300C2A5AD8DFE802F007595959E4
:1035D0001B5959593059595944000068FFF730FDBB
:1035E0002268936943F0080393612268936923F08A
:1035F000040393612268936929690B439361002056
:103600003EE00068FFF79CFF2268936943F4006383
:1036100093612268936923F48063936122689369BC
:10362000296943EA01239361002029E00068FFF73C
:103630003BFD2268D36943F00803D3612268D36954
:1036400023F00403D3612268D36929690B43D36152
:10365000002015E00068FFF75FFD2268D36943F49E
:103660000063D3612268D36923F48063D361226845
:10367000D369296943EA0123D361002000E00120D6
:10368000002384F83C3038BD0220FCE710B4846885
:1036900024F47F4C42EA03220A4342EA0C0282608D
:1036A0005DF8044B704790F83C30012B78D010B592
:1036B0000446012380F83C30022380F83D30026844
:1036C000936823F47F4323F0770393600B68602BA8
:1036D0004CD029D8402B54D00CD9502B22D1CA68B9
:1036E00049680068FFF740FD50212068FFF763FD3F
:1036F000002005E0202B0DD009D9302B0AD0012065
:10370000012384F83D30002384F83C3010BD0BB118
:10371000102B05D119462068FFF74DFD0020EFE77B
:103720000120EDE70120EBE7B3F5805F34D0B3F57E
:10373000005F0CD1CB684A6889680068FFF7A6FF74
:103740002268936843F4804393600020D8E7702B8D
:1037500024D1CB684A6889680068FFF797FF226820
:10376000936843F0770393600020C9E7CA6849680B
:103770000068FFF70CFD60212068FFF71CFD0020AA
:10378000BEE7CA6849680068FFF7EEFC4021206880
:10379000FFF711FD0020B3E70020B1E70120AFE7FC
:1037A0000220704790F83C30012B3DD010B401232B
:1037B00080F83C30022380F83D3003685A689C68EA
:1037C00022F0700C0A6842EA0C025A600368174A39
:1037D00093421AD0B3F1804F17D0A2F57C429342A6
:1037E00013D002F5806293420FD002F580629342BB
:1037F0000BD002F57842934207D002F57052934203
:1038000003D0A2F59432934204D124F080044A6894
:1038100014439C60012380F83D30002380F83C3045
:1038200018465DF8044B70470220704700000140C5
:1038300090F83C30012B22D0012380F83C30CB683B
:1038400023F440738A68134323F480634A68134364
:1038500023F400630A68134323F480530A69134373
:1038600023F400534A69134323F48043CA69134382
:1038700002685364002380F83C30184670470220E9
:10388000704770477047026802F10C0353E8003F2D
:1038900023F490730C3242E800310029F3D102681E
:1038A00002F1140353E8003F23F00103143242E80D
:1038B00000310029F3D1036B012B05D0202380F8C0
:1038C0004230002303637047026802F10C0353E89F
:1038D000003F23F010030C3242E800310029F3D1FD
:1038E000ECE790F84130DBB2212B01D00220704789
:1038F0008368B3F5805F17D0036A5A1C02621A7896
:1039000003685A60C38C9BB2013B9BB2C3844BB922
:103910000268D36823F08003D3600268D36843F061
:103920004003D360002070470369002BE4D1036A91
:103930001B880268C3F308035360036A02330362FF
:10394000E0E7000038B504460268136923F44053E9
:10395000C1680B43136183680269134342691343CF
:10396000C2691A430168CB6823F4164323F00C03A1
:103970001343CB600268536923F4407381690B439E
:1039800053610368314A934206D002F58062934244
:1039900002D0FFF717FB01E0FFF724FBE369B3F563
:1039A000004F29D00021031849411B1841F10001A3
:1039B000C90041EA5371DB00181863684FEA8302BB
:1039C0004FEA937341F10001FCF702FC204DA5FB87
:1039D00000325109642303FB11031B013233A5FBA1
:1039E00003235B0903F0F00202EB011203F00F0363
:1039F000216813448B6038BD0023021843EB030198
:103A0000121841F10001C90041EA5271D2001018A8
:103A100041F10001626892185B41FCF7D9FB0C4D43
:103A2000A5FB00325109642303FB1103DB00323391
:103A3000A5FB03235B095A0002F4F87202EB0112A2
:103A400003F00703216813448B60D4E700100140A2
:103A50001F85EB5160B310B5044690F8413013B3A5
:103A6000242384F841302268D36823F40053D360C0
:103A70002046FFF767FF2268136923F49043136120
:103A80002268536923F02A0353612268D36843F400
:103A90000053D36000206064202384F8413084F810
:103AA0004230606310BD80F84030FEF7FDFAD7E782
:103AB00001207047704708B50168CA6822F04002CB
:103AC000CA60202280F84120FFF7F4FF002008BDE3
:103AD0007047704708B5806B0023C385C384FFF728
:103AE000F8FF08BD90F84230DBB2222B69D1836821
:103AF000B3F5805F4FD0826AB3F5805F04D0002BAE
:103B000056D10369002B53D103685B681370836A35
:103B100001338362C38D9BB2013B9BB2C385002BF3
:103B200051D100B583B00268D36823F02003D3607D
:103B30000268D36823F48073D3600268536923F06A
:103B400001035361202380F8423000234363036B59
:103B5000012B33D100230363026802F10C0353E805
:103B6000003F23F010030C3242E800310029F3D16A
:103B700003681A6812F0100F06D0002201921A682A
:103B800001925B680193019B818DFDF7A7FC0020EA
:103B900003B05DF804FB0269002AACD1826A0368B5
:103BA0005B68C3F308031380836A02338362B1E75F
:103BB00003685B6803F07F031370A8E7FFF788FFD3
:103BC000E5E70220704700207047000030B583B061
:103BD000044602681368D068516913F00F0505D1D7
:103BE00013F0200F02D010F0200F19D12DB111F0D9
:103BF000010119D110F4907F16D1216B01297DD0DC
:103C000013F0800F03D010F0800F40F0198113F0F3
:103C1000400F03D010F0400F40F0168103B030BDCC
:103C20002046FFF75FFFF9E713F0010F06D010F40D
:103C3000807F03D0626C42F00102626413F0040FD3
:103C400004D019B1626C42F00202626413F0020FF8
:103C500004D019B1626C42F00402626413F0080FE0
:103C600007D010F0200F00D119B1626C42F00802A9
:103C70006264626C002AD1D013F0200F02D010F0E1
:103C8000200F29D123685B6903F04003626C12F0B6
:103C9000080F00D163B32046FFF7F5FD23685B6989
:103CA00013F0400F20D0226802F1140353E8003FC4
:103CB00023F04003143242E800310029F3D1E36BD2
:103CC00073B1634A1A65E06BFEF766FC0028A5D065
:103CD000E06B036D9847A1E72046FFF703FFD1E7AC
:103CE0002046FFF7F6FE99E72046FFF7F2FE95E73C
:103CF0002046FFF7EEFE002363648FE713F0100FFA
:103D00003FF47EAF10F0100F3FF47AAF0023019321
:103D10001368019353680193019B536913F0400F9B
:103D200052D0E26B13685B689BB2002B3FF476AF16
:103D3000A18D99427FF672AFE385D369B3F5807F99
:103D400037D0226802F10C0353E8003F23F480735C
:103D50000C3242E800310029F3D1226802F1140349
:103D600053E8003F23F00103143242E800310029F8
:103D7000F3D1226802F1140353E8003F23F040031B
:103D8000143242E800310029F3D1202384F8423074
:103D900000232363226802F10C0353E8003F23F061
:103DA00010030C3242E800310029F3D1E06BFEF73A
:103DB000A9FB02236363A18DE38D9BB2C91A89B26B
:103DC0002046FDF78BFB29E7A18DE38D9BB2C91A35
:103DD00089B2E38D9BB2002B3FF420AF00293FF462
:103DE0001DAF226802F10C0353E8003F23F49073E7
:103DF0000C3242E800300028F3D1226802F11403AB
:103E000053E8003F23F00103143242E80030002859
:103E1000F3D1202384F8423000232363226802F187
:103E20000C0353E8003F23F010030C3242E800304B
:103E30000028F3D1022363632046FDF74FFBEDE634
:103E40002046FFF74EFDE9E62046FFF734FEE5E6A3
:103E5000D53A000808B54FF0E0231B6901F084FD56
:103E6000012800D108BD00F05DFAFBE7EFF3058300
:103E70002BB9064B186828B901221A6070476FF0F9
:103E8000050070474FF0FF30704700BF2012002040
:103E9000EFF3058373B90A4B1B68012B0DD110B5E5
:103EA0000024084BDC77064B02221A6001F0ACFAC2
:103EB000204610BD6FF0050070474FF0FF3070478F
:103EC0002012002000ED00E0F0B587B0002405943A
:103ED000EFF305847CBB70B32AB31568936903B90B
:103EE00018235C1E372C4AD8546814F0010F48D1AF
:103EF000566976B14FEA960C946834B1D768B7F535
:103F0000916F02D3176907B1C6B92CB14FF0FF34D6
:103F10000EE04FF0800CEFE7D4688CB9146994B1CF
:103F20004FF0FF3404E01546002418234FF0800CB6
:103F3000012C0AD0ACB1059807B0F0BD0124F7E719
:103F40004FF0FF34F4E70024F2E71469926802921C
:103F5000019400930B466246294601F0E3F905906F
:103F6000E9E705AA019200930B461FFA8CF2294655
:103F700001F015FA0128DED000230593DBE70020CD
:103F8000DAE70020D8E708B5EFF3058333B908B9BD
:103F9000002008BD01F0A4FB0020FAE76FF0050047
:103FA000F7E770B582B0EFF30583002B49D10E46D9
:103FB0001446002849D0884249D34AB1956815B1C2
:103FC000D3684F2B14D8002D43D1E3680BB139E0EF
:103FD000002301280ED073BB314600F02BFD0546AF
:103FE00085B304B124682146284600F075FF29E016
:103FF0000123EEE7B3B903220021012000F0D3FC36
:104000000546002DECD0002EEAD000231A461946B2
:10401000284600F02DFD0128E2D0284600F086FF5A
:1040200000250FE0A368032200920022114600F051
:1040300070FC0546E5E7A268314600F0D8FC05466D
:10404000CEE70025284602B070BD0025FAE700251E
:10405000F8E70025F6E720B300B583B0EFF305835A
:10406000A3B10023019301A900F02DFE01281BD16B
:10407000019898B14FF0E0234FF08052C3F8042D1F
:10408000BFF34F8FBFF36F8F002007E000231A4666
:10409000194600F0EDFC012809D1002003B05DF8BD
:1040A00004FB6FF0030070476FF00200F6E76FF05B
:1040B0000200F3E7034B0360034B0B6080231360A4
:1040C000704700BF980D0020940B0020034B036045
:1040D000034B0B604FF48073136070472816002069
:1040E0002412002000F1080343604FF0FF32826089
:1040F000C3600361002303607047002303617047BE
:1041000043684B609A688A605160996008610368EF
:1041100001330360704730B40D68B5F1FF3F11D033
:1041200000F108031C465B681A68AA42FAD9636862
:104130004B6099608C6061600861036801330360C3
:1041400030BC70470469F2E70369416882688A609D
:10415000416851605A68824206D0002202611A68A2
:10416000013A1A601868704782685A60F5E70000E3
:1041700082B0002301930D4B1B68B3F1FF3F08D0C1
:104180004FF0500383F31188BFF36F8FBFF34F8F4E
:10419000FEE74FF0500383F31188BFF36F8FBFF337
:1041A0004F8F019B002BFCD002B070470C00002009
:1041B00008480068006880F308884FF0000080F32A
:1041C000148862B661B6BFF34F8FBFF36F8F00DF05
:1041D00000BF000008ED00E0DFF80C00016841F4CA
:1041E000700101607047000088ED00E04FF08073BF
:1041F00040F8043C21F0010140F8081C054B40F850
:104200000C3C40F8202C6FF0020340F8243C44386A
:10421000704700BF7141000800000000000000006E
:10422000074B19680868B0E8F04F80F30988BFF3BE
:104230006F8F4FF0000080F311887047AFF300805C
:10424000185700204FF0500383F31188BFF36F8F8E
:10425000BFF34F8F0B4A136801331360012B00D05B
:1042600070474FF0E023D3F8043D13F0FF0FF7D071
:104270004FF0500383F31188BFF36F8FBFF34F8F5D
:10428000FEE700BF0C000020094B1B6843B94FF04C
:10429000500383F31188BFF36F8FBFF34F8FFEE797
:1042A000013B034A13600BB983F31188704700BFC9
:1042B0000C000020000000000000000000000000D2
:1042C000EFF30980BFF36F8F154B1A681EF0100FC4
:1042D00008BF20ED108A20E9F04F10602DE9090099
:1042E0004FF0500080F31188BFF34F8FBFF36F8FF3
:1042F00001F01CFA4FF0000080F3118809BC196826
:104300000868B0E8F04F1EF0100F08BFB0EC108A3C
:1043100080F30988BFF36F8F704700BFAFF3008051
:104320001857002008B54FF0500383F31188BFF3EE
:104330006F8FBFF34F8F01F0CBF828B14FF0E02320
:104340004FF08052C3F8042D002383F3118808BD79
:104350004FF0E022002313619361054B1B68054970
:10436000A1FB03139B09013B5361072313617047B2
:1043700000000020D34D62104FF0E023D3F8002D51
:104380003D4B9A421CD04FF0E023D3F8002D3B4B1D
:104390009A421ED030B583B0394B1A78D2B201920E
:1043A000FF221A701B78DBB28DF803309DF80330C2
:1043B00003F05003334A1370334B07221A601BE09B
:1043C0004FF0500383F31188BFF36F8FBFF34F8F0C
:1043D000FEE74FF0500383F31188BFF36F8FBFF3F5
:1043E0004F8FFEE7284A1368013B13609DF80330A6
:1043F0005B00DBB28DF803309DF8033013F0800FC3
:10440000F0D1214B1B68032B08D04FF0500383F3EE
:104410001188BFF36F8FBFF34F8FFEE71B021A4A5D
:10442000136003F4E0631360019BDBB2144A137062
:104430004FF0E024D4F8203D43F47003C4F8203D4D
:10444000D4F8203D43F07043C4F8203DFFF780FFCF
:1044500000250E4B1D60FFF7BFFED4F8343F43F03C
:104460004043C4F8343FFFF7A3FE01F05FF9FFF7C4
:104470007FFE284603B030BD71C20F4170C20F41AC
:1044800000E400E0B01A0020B41A00200C00002064
:10449000EFF305830F2B0FD9114A9B5CDBB2114A56
:1044A00012789A4208D94FF0500383F31188BFF372
:1044B0006F8FBFF34F8FFEE74FF0E023D3F80C3D33
:1044C00003F4E063084A1268934208D94FF050039E
:1044D00083F31188BFF36F8FBFF34F8FFEE77047F1
:1044E000F0E300E0B01A0020B41A0020124A12F0E3
:1044F000070F1ED0D11D21F00701C1F570531344E1
:104500000A460E480260002141601344083B23F034
:1045100007030B48036059601960991A51601360D2
:10452000084B1960084B1960084B4FF000421A60A5
:1045300070474FF47053E4E7BC1A0020D0560020B7
:10454000B81A0020C4560020C0560020BC560020D7
:10455000164B1A461B688342FBD3516802EB010CD1
:10456000844509D0416800EB010C634509D0036024
:10457000904219D010607047406801445160104665
:10458000F0E710B40A4C2468A3420BD05B681944CE
:10459000416013681B680360904200D010605DF8B2
:1045A000044B70470460F7E7704700BFD056002007
:1045B000B81A002070B5054600F07CFF364B1B682A
:1045C000A3B1364B1B681D424ED135B1083515F0ED
:1045D000070F02D025F007050835002D46D0304BD7
:1045E0001B68AB4251D32F4A146804E0FFF77EFFEB
:1045F000E7E722461C466368AB4202D22368002BE1
:10460000F7D1254B1B68A34241D0166808362368B2
:10461000136063685B1B102B10D9601910F0070F33
:1046200008D04FF0500383F31188BFF36F8FBFF3AF
:104630004F8FFEE743606560FFF78AFF62681849A5
:104640000B689B1A0B60184909688B4201D2164906
:104650000B60124B1B681343636000232360134AF3
:1046600013680133136002E0002600E0002600F02A
:10467000BBFF16F0070F0CD04FF0500383F31188E7
:10468000BFF36F8FBFF34F8FFEE70026EFE70026E3
:10469000EDE7304670BD00BFB81A0020BC560020C0
:1046A000C0560020D0560020C4560020C856002016
:1046B000002834D038B50446A0F1080550F8043C71
:1046C000174A1268134208D14FF0500383F3118840
:1046D000BFF36F8FBFF34F8FFEE750F8081C41B157
:1046E0004FF0500383F31188BFF36F8FBFF34F8FE9
:1046F000FEE723EA020340F8043C00F0DBFE54F836
:10470000041C084A13680B4413602846FFF720FF77
:10471000054A13680133136000F066FF38BD704727
:10472000BC560020C0560020CC56002010B50446D0
:10473000FFF788FDA26BE36B9A4204D00024FFF7D9
:10474000A3FD204610BD0124F9E710B50446FFF78C
:1047500079FDA36B23B90124FFF796FD204610BD18
:104760000024F9E770B504461546866B026C5AB909
:1047700003681BB100200136A66370BD806801F09C
:1047800003F90023A360F6E76DB94068FCF70CFE5F
:10479000226C636813446360A268934219D3236850
:1047A00063602846E7E7C068FCF7FEFD226C5142D3
:1047B000E3689B1AE3602268934202D2A3680B4429
:1047C000E360022D01D00020D5E726B1013E002094
:1047D000D1E72846CFE70020CDE70346026C6AB157
:1047E00010B50846D9681144D9609C68A14201D32C
:1047F0001968D960D968FCF7D7FD10BD704738B586
:104800000546FFF71FFD95F8454064B201E0013C05
:1048100064B2002C0ADD6B6A43B105F1240001F09B
:1048200009F80028F3D001F099F8F0E7FF2385F8A4
:104830004530FFF729FDFFF705FD95F8444064B2C8
:1048400001E0013C64B2002C0ADD2B6943B105F1A3
:10485000100000F0EFFF0028F3D001F07FF8F0E740
:10486000FF2385F84430FFF70FFD38BD38B5E0B1C0
:104870000D460446FFF7E6FC2368E26B216C01FB62
:104880000230A0600020A0636360013A02FB0133A4
:10489000E360FF2384F8443084F84530FDB9236990
:1048A00063B9FFF7F1FC012038BD4FF0500383F3EB
:1048B0001188BFF36F8FBFF34F8FFEE704F1100035
:1048C00000F0B8FF0028ECD04FF0E0234FF080520A
:1048D000C3F8042DBFF34F8FBFF36F8FE1E704F1EF
:1048E0001000FFF7FFFB04F12400FFF7FBFBD8E704
:1048F00038B51D46049C0B4649B92460E063236427
:1049000001212046FFF7B2FF84F84C5038BD2260E9
:10491000F4E740B94FF0500383F31188BFF36F8F72
:10492000BFF34F8FFEE710B584B01C46844653B1E9
:1049300092B189B94FF0500383F31188BFF36F8FA1
:10494000BFF34F8FFEE74FF0500383F31188BFF39F
:104950006F8FBFF34F8FFEE76AB150230393039B22
:10496000502B13D04FF0500383F31188BFF36F8F98
:10497000BFF34F8FFEE70029EFD04FF0500383F3D2
:104980001188BFF36F8FBFF34F8FFEE7039B0123A7
:1049900084F8463000949DF818306046FFF7A8FF71
:1049A000204604B010BD40B94FF0500383F3118886
:1049B000BFF36F8FBFF34F8FFEE7F0B583B00D46A7
:1049C0001446064601FB00F05030FFF7F3FD0746A2
:1049D00050B1002380F846300090234600F1500289
:1049E00029463046FFF784FF384603B0F0BD40B992
:1049F0004FF0500383F31188BFF36F8FBFF34F8FD6
:104A0000FEE710B582B00C46884208D24FF0500342
:104A100083F31188BFF36F8FBFF34F8FFEE702233D
:104A20000093134600221146FFF773FF00B1846321
:104A300002B010BD40B94FF0500383F31188BFF3AB
:104A40006F8FBFF34F8FFEE710B50C46884208D238
:104A50004FF0500383F31188BFF36F8FBFF34F8F75
:104A6000FEE702220021FFF79EFF00B1846310BD24
:104A7000F0B585B0019288B10F461D460446B1B12C
:104A8000022D20D1E36B012B1DD04FF0500383F397
:104A90001188BFF36F8FBFF34F8FFEE74FF05003C6
:104AA00083F31188BFF36F8FBFF34F8FFEE7036C63
:104AB000002BE5D04FF0500383F31188BFF36F8FC5
:104AC000BFF34F8FFEE700F04FFF064658B9019B3A
:104AD000002B48D04FF0500383F31188BFF36F8F42
:104AE000BFF34F8FFEE700263DE02A4639462046B9
:104AF000FFF738FE636A7BB948B14FF0E0234FF00F
:104B00008052C3F8042DBFF34F8FBFF36F8FFFF7B1
:104B1000BBFB012005B0F0BD04F1240000F08AFECB
:104B20000028F4D04FF0E0234FF08052C3F8042D5A
:104B3000BFF34F8FBFF36F8FE9E7FFF7A5FB0020AF
:104B4000E8E702A800F0BCFE012619E0002384F883
:104B5000443021E0002384F8453023E02046FFF76D
:104B60004EFE00F041FDFFF76DFBA26BE36B9A4236
:104B7000BBD3022DB9D0019B002BDED0002EE0D09C
:104B8000FFF782FB00F096FCFFF75CFB94F84420F3
:104B900052B2B2F1FF3FD9D094F8452052B2B2F1EF
:104BA000FF3FD7D0FFF770FB01A902A800F094FEE9
:104BB000D8B92046FFF7BAFD0028CFD0019904F1FB
:104BC000100000F003FE2046FFF719FE00F00CFD78
:104BD0000028C8D14FF0E0234FF08052C3F8042DD5
:104BE000BFF34F8FBFF36F8FBDE72046FFF707FE80
:104BF00000F0FAFC00208DE72DE9F84390B10F4654
:104C000016461C460546B1B1022C20D1EB6B012B98
:104C10001DD04FF0500383F31188BFF36F8FBFF3A4
:104C20004F8FFEE74FF0500383F31188BFF36F8F70
:104C3000BFF34F8FFEE7036C002BE5D04FF050031E
:104C400083F31188BFF36F8FBFF34F8FFEE7FFF73A
:104C50001FFCEFF311894FF0500383F31188BFF36A
:104C60006F8FBFF34F8FAA6BEB6B9A4206D3022C68
:104C700004D0002089F31188BDE8F88395F84580B9
:104C80004FFA88F8AB6B224639462846FFF76AFD93
:104C9000B8F1FF3F06D008F101035BB285F845305B
:104CA0000120E7E76B6A0BB90120E3E705F1240077
:104CB00000F0C0FD18B126B101203060DAE7012014
:104CC000D8E70120D6E768B170B50C460546036CFD
:104CD0008BB14FF0500383F31188BFF36F8FBFF395
:104CE0004F8FFEE74FF0500383F31188BFF36F8FB0
:104CF000BFF34F8FFEE70368EBB1FFF7C9FBEFF39C
:104D000011864FF0500383F31188BFF36F8FBFF309
:104D10004F8FAA6BEB6B934226D995F845305BB267
:104D20000132AA63B3F1FF3F11D001335BB285F8C2
:104D30004530012019E08368002BDED04FF050038E
:104D400083F31188BFF36F8FBFF34F8FFEE76B6A5A
:104D50000BB9012009E005F1240000F06BFD38B12A
:104D600044B10120206000E0002086F3118870BD6E
:104D70000120FAE70120F8E7F0B585B0019290B183
:104D80000F460446C1B100F0EFFD064600BB019B93
:104D9000002B5ED04FF0500383F31188BFF36F8F69
:104DA000BFF34F8FFEE74FF0500383F31188BFF33B
:104DB0006F8FBFF34F8FFEE7036C002BE3D04FF0F4
:104DC000500383F31188BFF36F8FBFF34F8FFEE75C
:104DD00000263EE039462046FFF7FFFC013DA56373
:104DE000236923B9FFF750FA012005B0F0BD04F1A3
:104DF000100000F01FFD0028F4D04FF0E0234FF02A
:104E00008052C3F8042DBFF34F8FBFF36F8FE9E7D4
:104E1000FFF73AFA0020E8E702A800F051FD01266A
:104E200021E0002384F8443029E0002384F8453051
:104E30002BE02046FFF7E3FC00F0D6FB09E020461C
:104E4000FFF7DDFC00F0D0FB2046FFF77EFC0028DA
:104E50003FD1FFF7F7F9A56B002DBBD1019B002BCC
:104E6000D6D0002ED8D0FFF70FFA00F023FBFFF7C3
:104E7000E9F994F844305BB2B3F1FF3FD1D094F834
:104E800045305BB2B3F1FF3FCFD0FFF7FDF901A989
:104E900002A800F021FD0028D1D12046FFF755FCE3
:104EA0000028C6D0019904F1240000F08FFC2046B0
:104EB000FFF7A5FC00F098FB0028CAD14FF0E023D3
:104EC0004FF08052C3F8042DBFF34F8FBFF36F8FA5
:104ED000BFE7002089E700000023072B0CD8074A12
:104EE00052F833200AB10133F7E7044A42F833108D
:104EF00002EBC30358607047704700BFD8560020CC
:104F00000023072B0FD8084A02EBC30252688242E3
:104F100001D00133F5E7044A002142F8331002EBD7
:104F2000C303596070477047D856002038B110B598
:104F30000446FFF7E5FF94F846304BB110BD4FF043
:104F4000500383F31188BFF36F8FBFF34F8FFEE7DA
:104F50002046FFF7ADFBF1E770B504460D46164657
:104F6000FFF770F994F844305BB2B3F1FF3F0DD016
:104F700094F845305BB2B3F1FF3F0BD0FFF784F9F3
:104F8000A36B5BB12046FFF73AFC70BD002384F8A9
:104F90004430EDE7002384F84530EFE732462946F8
:104FA00004F1240000F02AFCECE70000084B1B6829
:104FB0001B6823B9074B4FF0FF321A607047044B50
:104FC0001B68DB68DB685A68024B1A60704700BFD9
:104FD0001C570020C45B00202DE9F04780460D4699
:104FE00017469946089EDDF824A00A9C9200A52148
:104FF000206B00F06DFF236B07F18042013A03EB59
:10500000820727F00707002D65D04FF0000CBCF198
:105010000F0F0BD815F80C2004EB0C0383F8342089
:1050200015F80C3013B10CF1010CF0E7002384F8F3
:105030004330372E00D93726E662E6640025256521
:10504000201DFFF75AF804F11800FFF756F8246105
:10505000C6F13806A6616462C4F8805484F88454AA
:105060004FF48562294604F1580000F031FF04F541
:105070005173E36504F56B73236604F214436366AE
:1050800001220023C4E9402343F20E33A4F808317F
:105090004AF6CD33A4F80A3141F23423A4F80C3196
:1050A0004EF26D63A4F80E314DF6EC63A4F81031A6
:1050B0000523A4F812310B23A4F814314A464146C3
:1050C0003846FFF793F82060BAF1000F01D0CAF814
:1050D0000040BDE8F087002384F83430A9E70000E1
:1050E00038B5002407E004EB840293000E4818440E
:1050F000FEF7F8FF0134372CF5D90C4D2846FEF7A2
:10510000F1FF0B4C2046FEF7EDFF0A48FEF7EAFFE1
:105110000948FEF7E7FF0948FEF7E4FF084B1D606A
:10512000084B1C6038BD00BF24570020985B00204E
:10513000AC5B0020D05B0020FC5B0020E85B002023
:105140001C5700202057002010B50446FFF77AF8BE
:10515000224A136801331360214B1B685BB1214B5A
:105160001B686BB91E4B1B68DA6AE36A9A4207D860
:105170001B4B1C6004E01A4B1C601368012B29D0E8
:10518000194A1368013313606364E06A174B1B68A4
:10519000984201D9154B186000EB8000211D144B7B
:1051A00003EB8000FEF7ACFFFFF76EF80D4B1B68BA
:1051B0007BB10B4B1B68DA6AE36A9A4209D24FF063
:1051C000E0234FF08052C3F8042DBFF34F8FBFF39D
:1051D0006F8F10BDFFF784FFD2E700BF845B002014
:1051E00018570020E45B0020905B0020945B0020B7
:1051F0002457002010B50446583000F0DFFE94F824
:10520000853463B1012B11D0022B0ED04FF0500327
:1052100083F31188BFF36F8FBFF34F8FFEE7206BCF
:10522000FFF746FA2046FFF743FA10BD2046FFF786
:105230003FFAFAE70F4B1B68D3B110B5FFF702F83E
:105240000D4BDB68DC68201DFEF77EFF0B4A136800
:10525000013B1360074A1368013B1360FFF714F822
:105260002046FFF7C7FF034B1B68002BE6D110BD9C
:10527000704700BF885B0020FC5B0020845B00203F
:1052800008B5FFF7D7FF074B1B68012BF9D94FF083
:10529000E0234FF08052C3F8042DBFF34F8FBFF3CC
:1052A0006F8FEEE72457002070B504460D46174B6C
:1052B0001E68174B18680430FEF746FFB4F1FF3F35
:1052C0000DD03444124B1B685C60A64210D9114BC0
:1052D00018680F4B19680431FEF71DFF70BD002DD3
:1052E000EFD00B4B196804310B48FEF709FFF5E7C7
:1052F0000A4B1868064B19680431FEF70CFF084B7F
:105300001B68A342EAD9064B1C60E7E7105C00204B
:105310001857002020570020E85B00201C57002071
:10532000C45B002030B587B00B9C8CB10C9DC5B11F
:105330004FF491650495049DB5F5916F1AD04FF027
:10534000500383F31188BFF36F8FBFF34F8FFEE7D6
:105350004FF0500383F31188BFF36F8FBFF34F8F6C
:10536000FEE74FF0500383F31188BFF36F8FBFF355
:105370004F8FFEE7049D0C9D2C63022485F8854425
:1053800000240394029505AC01940A9C0094FFF755
:1053900023FE0C98FFF7D8FE059807B030BD2DE925
:1053A000F04385B00746884614461E469000FFF736
:1053B00001F908B381464FF49160FFF7FBF8054609
:1053C000B0B1C0F83090E5B1002385F8853403937F
:1053D00002950D9B01930C9B009333462246414658
:1053E0003846FFF7F9FD2846FFF7AEFE012005E03D
:1053F0004846FFF75DF9E6E74FF0FF3005B0BDE83E
:10540000F0834FF0FF30F9E710B588B00024059421
:10541000069407AA06A905A8FEF74CFE059B029371
:10542000069B019300942346079A1A491A48FFF7EE
:1054300079FF1A4B186040B100F05AFB012806D0E2
:10544000B0F1FF3F1DD008B010BD0020F6E74FF0CF
:10545000500383F31188BFF36F8FBFF34F8F104B4F
:105460001B6858330F4A13600F4B4FF0FF321A601E
:105470000E4B01221A600E4B00221A60FEF77CFFD1
:10548000E1E74FF0500383F31188BFF36F8FBFF351
:105490004F8FFEE7C865000881520008C05B0020FE
:1054A0001857002010000020C45B0020E45B00209F
:1054B000105C0020024A136801331360704700BF7C
:1054C0008C5B0020014B1868704700BF105C002007
:1054D000F8B53A4B1B68002B69D1394B1D68013573
:1054E0001D60C5B9374B1B681B6843B14FF05003B3
:1054F00083F31188BFF36F8FBFF34F8FFEE7314AFD
:105500001168314B186810601960304A1368013314
:105510001360FFF74BFD2E4B1B68AB423DD90027B4
:105520002C4B1B68DB6A03EB83039A002A4B9B58C6
:10553000012B00D90127294B1B68002B3CD00127E8
:105540003AE001271F4B1B681B6843B31D4B1B68C8
:10555000DB68DC6863689D4226D3261D3046FEF773
:10556000F3FDA36A1BB104F11800FEF7EDFDE36A39
:105570001B4A1268934201D9194A136003EB830353
:105580009A00314614481044FEF7BAFDE26A114B06
:105590001B68DB6A9A42D4D2D4E70027D2E70C4BCF
:1055A0004FF0FF321A60BBE7094A1360B8E70D4AB3
:1055B00013680133136000273846F8BD8C5B002068
:1055C000105C00201C57002020570020C85B0020E2
:1055D000C45B00201857002024570020145C0020D2
:1055E000945B0020CC5B002038B5354B1B6843B979
:1055F0004FF0500383F31188BFF36F8FBFF34F8FCA
:10560000FEE7FEF71FFE2E4B1A68013A1A601B6870
:10561000002B4FD12B4B1B680BB900244BE000240F
:10562000294B1B681BB3284BDB68DC6804F11800AE
:10563000FEF78AFD251D2846FEF786FDE06A234B0E
:105640001B68984201D9214B186000EB8000294665
:105650001F4B03EB8000FEF753FDE26A1D4B1B68F6
:10566000DB6A9A42DCD31C4B01221A60D8E70CB1EA
:10567000FFF79CFC194B1C6884B9174B1C68D4B10C
:105680004FF0E0234FF08052C3F8042DBFF34F8F4B
:10569000BFF36F8F01240EE0013C07D0FFF718FF26
:1056A0000028F9D00C4B01221A60F5E70B4B0022C1
:1056B0001A60E2E70024FEF7E7FD204638BD00BF90
:1056C0008C5B0020845B0020D05B0020945B00207A
:1056D0002457002018570020145C0020CC5B0020C9
:1056E00010B5A8B10446104B1B6843B14FF05003EE
:1056F00083F31188BFF36F8FBFF34F8FFEE7FFF780
:10570000D9FE00212046FFF7CFFDFFF76DFF48B916
:105710004FF0E0234FF08052C3F8042DBFF34F8FBA
:10572000BFF36F8F10BD00BF8C5B0020214B1B6847
:105730001BB1214B01221A6070471F4B00221A60D7
:105740001E4B1B6803EB83018A001D498A585AB916
:105750000BB1013BF6E74FF0500383F31188BFF321
:105760006F8FBFF34F8FFEE703EB830082000A4485
:1057700050684068506003EB830C4FEA8C0208329B
:10578000114488420FD003EB830291000C4A0A4473
:105790005268D1680B4A116008490B60136858338E
:1057A000094A13607047406862469100044A0A44FF
:1057B0005060E8E78C5B0020145C0020945B0020C4
:1057C00024570020185700201000002058B110B5B1
:1057D0000C46094A11681831FEF79DFC012120464C
:1057E000FFF762FD10BD4FF0500383F31188BFF344
:1057F0006F8FBFF34F8FFEE71857002038B570B199
:105800000D4614460A4A11681831FEF779FC0CB1AE
:105810004FF0FF3521462846FFF746FD38BD4FF0D3
:10582000500383F31188BFF36F8FBFF34F8FFEE7F1
:105830001857002038B5C368DC6824B304F1180594
:105840002846FEF781FC184B1B682BBB251D2846FC
:10585000FEF77AFCE06A154B1B68984201D9134B9E
:10586000186000EB80002946114B03EB8000FEF727
:1058700047FCE26A0F4B1B68DB6A9A4211D9012090
:105880000D4B186038BD4FF0500383F31188BFF300
:105890006F8FBFF34F8FFEE729460848FEF730FCB5
:1058A000E7E70020EEE700BF8C5B0020945B002060
:1058B0002457002018570020145C0020D05B0020E3
:1058C000034B1B680360034B1B684360704700BFBA
:1058D000C85B0020105C0020F8B5C8B10C46054636
:1058E000F9B1FEF7AFFC1B4B19686B68C81A226848
:1058F000B2F1FF3F26D0184E36682F68B74201D06C
:105900008B4224D9824215D80023236001241AE057
:105910004FF0500383F31188BFF36F8FBFF34F8FA6
:10592000FEE74FF0500383F31188BFF36F8FBFF38F
:105930004F8FFEE75B1A134423602846FFF7C0FF32
:10594000002400E00024FEF79FFC2046F8BD01245F
:10595000F9E700BF105C0020C85B0020014B01226A
:105960001A607047145C0020054B1B6833B1054B6F
:105970001B680BB100207047022070470120704760
:10598000E45B00208C5B002000283BD038B5044647
:105990001E4B1B68834208D04FF0500383F31188DD
:1059A000BFF36F8FBFF34F8FFEE7036D43B94FF027
:1059B000500383F31188BFF36F8FBFF34F8FFEE760
:1059C000013B0365C16AC26C91421DD00BB100203E
:1059D00038BD051D2846FEF7B7FBE06CE062C0F15C
:1059E0003803A3610A4B1B68984201D9084B186021
:1059F00000EB80002946074B03EB8000FEF780FB9D
:105A00000120E5E7002070470020E1E7185700205B
:105A1000945B002024570020064B1A6813682BB9AA
:105A20000123036023B9D368186870470023F8E79F
:105A300000207047185C002008B541600061914269
:105A40000CD8D21A83699A4201D3012008BD011DE6
:105A5000094B1868FEF75FFB0020F7E79A4201D276
:105A6000994206D2011D054B1868FEF754FB002031
:105A7000ECE70120EAE700BF1C5C0020185C002076
:105A800030B583B0FEF7DEFB114B1B681BB1FEF790
:105A9000FBFB03B030BD0F4D2846FEF723FB0E4C39
:105AA0002046FEF71FFB0D4B1D600D4B1C600023B5
:105AB00000930C4B0C4A10210A20FEF72AFF044BDE
:105AC00018600028E3D00949FFF706FADFE700BFB6
:105AD0003C5D0020C05C0020D45C0020185C0020ED
