:020000040800F2
:1000000000000220A5220008391900083B19000849
:100010003D1900083F1900084119000800000000C0
:10002000000000000000000000000000714800080F
:100030004319000800000000114900084544000869
:10004000F5220008F5220008F5220008F522000834
:10005000F5220008F5220008F5220008F522000824
:10006000F5220008F5220008F5220008F522000814
:10007000F5220008F5220008F5220008F522000804
:10008000F5220008F5220008F5220008F5220008F4
:10009000F5220008F5220008F5220008F5220008E4
:1000A000F5220008F5220008F5220008F5220008D4
:1000B000F5220008F5220008F5220008F5220008C4
:1000C000F5220008F5220008F5220008F5220008B4
:1000D000F522000845190008F5220008F52200085D
:1000E000F5220008F5220008F5220008F522000894
:1000F000F5220008F5220008F5220008F522000884
:10010000F5220008F522000855190008F52200081C
:10011000F5220008F5220008F5220008F522000863
:10012000F52200086519000875190008F522000875
:10013000F52200080000000000000000F522000881
:10014000F5220008F5220008F5220008F522000833
:10015000F5220008F5220008F5220008851900089C
:10016000F5220008F5220008F5220008F522000813
:10017000F5220008F5220008000000000000000041
:08018000F5220008F522000839
:1001900010B5054C237833B9044B13B10448AFF3C1
:1001A00000800123237010BD6008002000000000C3
:1001B0008079000808B5034B1BB103490348AFF32E
:1001C000008008BD0000000064080020807900085D
:1001D00053B94AB9002908BF00281CBF4FF0FF31AE
:1001E0004FF0FF3001F0DEB8ADF1080C6DE904CE40
:1001F00000F006F8DDF804E0DDE9022304B0704702
:100200002DE9F047089D04468E46002B4DD18A42C9
:10021000944669D9B2FA82F252B101FA02F3C2F1FC
:10022000200120FA01F10CFA02FC41EA030E94408D
:100230004FEA1C48210CBEFBF8F61FFA8CF708FBAE
:1002400016E341EA034306FB07F199420AD91CEB86
:10025000030306F1FF3080F01F81994240F21C81B8
:10026000023E63445B1AA4B2B3FBF8F008FB103300
:1002700044EA034400FB07F7A7420AD91CEB040435
:1002800000F1FF3380F00A81A74240F20781644405
:10029000023840EA0640E41B00261DB1D44000238A
:1002A000C5E900433146BDE8F0878B4209D9002DEE
:1002B00000F0EF800026C5E9000130463146BDE878
:1002C000F087B3FA83F6002E4AD18B4202D38242E2
:1002D00000F2F980841A61EB030301209E46002D91
:1002E000E0D0C5E9004EDDE702B9FFDEB2FA82F2E6
:1002F000002A40F09280A1EB0C014FEA1C471FFA44
:100300008CFE0126200CB1FBF7F307FB131140EA2A
:1003100001410EFB03F0884208D91CEB010103F1F7
:10032000FF3802D2884200F2CB804346091AA4B2B9
:10033000B1FBF7F007FB101144EA01440EFB00FE8D
:10034000A64508D91CEB040400F1FF3102D2A645F2
:1003500000F2BB800846A4EB0E0440EA03409CE791
:10036000C6F12007B34022FA07FC4CEA030C20FA3E
:1003700007F401FA06F31C43F9404FEA1C4900FA5E
:1003800006F3B1FBF9F8200C1FFA8CFE09FB1811DB
:1003900040EA014108FB0EF0884202FA06F20BD94E
:1003A0001CEB010108F1FF3A80F08880884240F29E
:1003B0008580A8F102086144091AA4B2B1FBF9F0E2
:1003C00009FB101144EA014100FB0EFE8E4508D9DD
:1003D0001CEB010100F1FF346CD28E456AD9023862
:1003E000614440EA0840A0FB0294A1EB0E01A14247
:1003F000C846A64656D353D05DB1B3EB080261EBB5
:100400000E0101FA07F722FA06F3F1401F43C5E98E
:10041000007100263146BDE8F087C2F12003D840C4
:100420000CFA02FC21FA03F3914001434FEA1C4706
:100430001FFA8CFEB3FBF7F007FB10360B0C43EAF8
:10044000064300FB0EF69E4204FA02F408D91CEBA8
:10045000030300F1FF382FD29E422DD902386344A6
:100460009B1B89B2B3FBF7F607FB163341EA034146
:1004700006FB0EF38B4208D91CEB010106F1FF3895
:1004800016D28B4214D9023E6144C91A46EA00468C
:1004900038E72E46284605E70646E3E61846F8E61E
:1004A0004B45A9D2B9EB020864EB0C0E0138A3E767
:1004B0004646EAE7204694E74046D1E7D0467BE748
:1004C000023B614432E7304609E76444023842E7C0
:1004D00003685A004CBF43F0004323F00043184424
:1004E000704700BF2DE9F84329B34F1E0446154657
:1004F0003E464FF0000808EB060101EBD1714910B0
:1005000004EBC1094846FFF7E3FF0346C800083083
:100510008F42204409D0AB4209D8FFF7D9FF0138F8
:10052000A8420AD201F10108E5E7AB4205D98845A6
:1005300001D04E1EDFE74FF000094846BDE8F883C2
:10054000012807D0022807D0044B00280CBF18460A
:10055000002070470248704702487047190C000895
:100560001D0C0008210C000830B5234B83B0044655
:100570008D1E3BB301A92846AFF30080E8B1019975
:100580002A46FFF7AFFF0146B8B1FFF7A1FF4B685E
:10059000A064012B2CD0002B01F1040024DBFFF719
:1005A00097FF0023C4E913030368002B11DBFFF757
:1005B0008FFF2061002003B030BD0023092023619C
:1005C00003B030BD0D4B0E49C91AC9101846019130
:1005D000D6E7C3F30360FFF7B3FF0028206114BF21
:1005E0000020092003B030BD0123C4E91303DBE779
:1005F000002323610520DEE700000000247B0008C3
:100600006C7C00080368DA0710B5044606D49B0723
:1006100000F1480009D500F05BFC2368590709D5B3
:100620001A070ED5DB0613D510BD00F049FC236870
:100630005907F5D404F1D00000F052FC23681A07E2
:10064000F0D404F5A87000F053FC2368DB06EBD46B
:1006500004F5E870BDE8104000F08EBC092070473A
:100660000346006800B11844704700BF704700BFE0
:1006700070B504460E46316C2046FFF775FF0546FF
:1006800088B9326C6261236932462146012098475D
:100690000828F0D0072806D12846316CFFF7E6FF7E
:1006A000301D00F001FC06F051FE00BF2DE9F047BF
:1006B0000D1DD0F80C80D0F81890074614460FCDC9
:1006C000ADF5727D0DF10C0CACE80F000FCDACE870
:1006D0000F000FCDACE80F0095E80F0002AE4FF011
:1006E000000E8CE80F00C6F800E020E0336C7B6160
:1006F0004FF4F07231467AA800F056FE3B697AAAB0
:10070000394650469847889B73642146CDE9006975
:1007100005463B463A460120C0470446E0B94FF43F
:10072000F0727AA9304600F03FFE082D1AD1316CE4
:100730003846FFF719FF09345FFA84FA05460028A6
:10074000D4D0B36B73643A46CDE900693B464AF0B6
:1007500010010120C04700B1092528460DF5727D22
:10076000BDE8F087072DF7D12046316CFFF77EFFFB
:1007700003A800F099FB00BF406C7047F0B5CB6B4D
:100780000B6401F1040C0E460546BCE80F00F9B0FD
:1007900001AC0FC4BCE80F000FC4BCE80F000FC4CD
:1007A0009CE80F004FF0FF3784E80F00009706E049
:1007B0002B696A46294698470828044608D11099AB
:1007C0002846FFF7D1FE0028F2D0092079B0F0BD0D
:1007D0006846FFF717FF062CF7D131462846FFF78A
:1007E00047FF00BFC160D96B8261196400221946BE
:1007F0005CE700BF70B5C66843690B64AEB90369B6
:100800000A4604460D46014602209847072805D0AF
:1008100008280FD129462046FFF72AFF3046296CC9
:10082000FFF724FF281D00F03FFB0122FFF73EFFEA
:1008300006F08CFD06F08AFDC2681AB1CA6B0A6424
:10084000002233E79AE700BF704700BF8368014684
:100850000BB1012018477047012912D009D873B98C
:100860000F2A0CD800EB820218465368009A1360D6
:1008700070470339012994BF0120022070470220EC
:1008800070470846704700BF00B585B00A46002390
:1008900003A900911946FFF7DFFF039805B05DF843
:1008A00004FB00BF012912D009D873B90F2A0CD854
:1008B00000EB8200009A12684260184670470339C4
:1008C000012994BF0120022070470220704708468A
:1008D000704700BF10B584B0002303AC03920094AE
:1008E0000A461946FFF7DEFF04B010BD70B5D36BA2
:1008F000136402F1040C05460C46BCE80F00ADF58C
:100900000E7D0DF15C0EAEE80F00BCE80F00AEE806
:100910000F00BCE80F00AEE80F009CE80F004FF09E
:10092000FF368EE80F00169610E0FFF7D3FF214642
:1009300016A8A847034616AA6946082083B9049B4F
:100940009847052806460CD0092809D026996846FC
:10095000FFF70AFE03466A460C2116A8002BE4D0D6
:10096000092616A8FFF74EFE30460DF50E7D70BD28
:100970002DE9F04FCC6C89B01E4654F8043B069428
:100980000D46174600F00308002E79D01A0C1B0400
:1009900005938DF81D200223D2B204EB82048DF85A
:1009A0001C302B6DB8F1020F08BFAC6B13F00103C4
:1009B0000CD005A9384600F079FB18B9082009B019
:1009C000BDE8F08F092009B0BDE8F08FD4F800A091
:1009D000BAF1000FEDD0019300F008030293022E4C
:1009E0004AD0B4F800A0B4F802900434AB6C29F0FB
:1009F000010B0F2138469B44FFF746FF834539D84A
:100A00002AF001039B44834594BF002001204FEA54
:100A1000490303F002030AF0010A43EA0A03012B27
:100A200049D0022B32D0002BCCD1B8F1000F02D02C
:100A3000002840F0CD800434D4F800A0BAF1000FB3
:100A4000CDD105A9384600F031FB0028BAD1019B71
:100A5000002BB3D00F213846FFF716FF0E210246B8
:100A60003846FFF737FF38466A4A0F21FFF732FF53
:100A70000720A8E70020CAE7D4F804900834B5E7B7
:100A80001B0205930323ADF81C308AE7236823F08B
:100A9000004BB8F1000F45D128B1029A002A5CD072
:100AA000BBF1000F74D0002B00DA04340BF1010B02
:100AB00004EB8B04C0E7B8F1000F19D1B0B1636843
:100AC0002268991C4FEAD2723FF47CAF05F15801BD
:100AD0000133049100F09080201DFFF7C1FD04ABAD
:100AE00001462846AFF3008000285BD10834A3E715
:100AF0000D213846D5F82090FFF7C6FE8145F5D187
:100B0000AB6A9C42F2D12046FFF7E2FC0F2102467D
:100B10003846FFF7DFFE38462A460021FFF7DAFEA7
:100B2000072050E70D213846D5F82090FFF7ACFE9E
:100B3000814501D02368B6E7AB6A9C42FAD1042311
:100B40000022C5E90B23E318C5F828B06B632368BE
:100B5000002B59DB01230193A8E705F15803CDF8D9
:100B60000C8004F1040AB04691461E460EE0504641
:100B70000496FFF775FD0022014604AB284609F1F3
:100B800001090AF1040AAFF30080E0B9D945EED1BA
:100B90000D213846FFF778FE049BAC62C5E90803D7
:100BA000062010E781460D213846FFF76DFEB9F1AA
:100BB000020F286225D12B46049A43F82C2F6B6232
:100BC000AC620620FFE646462368DDF80C806AE743
:100BD0002046FFF77DFC04340246AC6328461446E9
:100BE000AFF3008000283FF4EDAE384622460F21D7
:100BF000FFF770FE0720E6E60D213846FFF744FEBA
:100C00002862049B6B62DBE70BF1010004EB8000C0
:100C10007AE700BF000000000023A9E60123A7E651
:100C20000223A5E62DE9F0430646C3B015461C464F
:100C3000042900F2BF80DFE801F09E57BD2D0300BC
:100C4000002C40F0B780102A00F2B4800368D80668
:100C500000F1F98020AF384600F098F9B46B3946BE
:100C600000234FF0010C0CFA03F22A42204603F154
:100C7000010303D050F8042B0A600446042B01F151
:100C80000401F0D13846B46300F076F9002043B097
:100C9000BDE8F083032C40F08D8094B204EB124346
:100CA000102B4FEA124500F2858003681F0700F100
:100CB000D28020AF384600F03DF9B26B07EBC5019A
:100CC00054B10B46D01A01EBC401E4001D5843F89F
:100CD000045B8B42FAD122443846B26300F008F933
:100CE000002043B0BDE8F083012C4FEA124895B2D2
:100CF0005CD0052C5ED108EB0509B9F1200F59D85D
:100D0000B8F10F0F79D9A946002D40F08A80B36B56
:100D10006DB320AF4FF0000907EBC807043F03EBAA
:100D2000C50553F8041B47F8041FAB42F9D1B9F1CC
:100D3000000F0FD06F464146102938BF102107EB36
:100D4000C101843903EBC90553F8040B41F8040FC2
:100D5000AB42F9D1012C00F08680B8F10F0FB563DA
:100D600047D9B9F1000F02D0684600F0B9F8002069
:100D700043B0BDE8F083ECB9806B23461FFA82FCD8
:100D80000124371D04FA03F212EA0C0F014604D0C5
:100D900051F8042B47F8232008460133102BF1D1DA
:100DA00015F40055E3D1B063284604E008EB0503D1
:100DB000102B03D9022043B0BDE8F083B8F10F0F28
:100DC000F8D83368DA0706D5304623F0030340F835
:100DD000483B00F079F820AF384600F075F8B36B67
:100DE000002D97D11D460435B563384600F068F8EC
:100DF000BDE720A800F06CF8B3E7B9F1100F40D9B7
:100E0000A9F110093368D90708D523F0010330464A
:100E100043F0020340F8483B00F05EF8B9F1000FE0
:100E200032D033685A0720D4B8F10F0F25D96F4656
:100E30003846C8F1100500F057F8002DB36B7FF766
:100E40007AAF20AF68E723F01003336006F5E8704F
:100E500000F09CF8FEE623F00803036000F5A8709C
:100E600000F068F825E720AFBDE7304623F0040323
:100E700040F8D03B00F038F8D6E720A800F02CF876
:100E8000D5E74FF00009BDE7B8F10F0F3FF63FAFD0
:100E900020AF384600F020F8B36B002D7FF43AAF56
:100EA000384600F015F862E700F1340191E83800A7
:100EB0009C46A6464CF8045D90E8FF0FE54600BD51
:100EC00090EC210B704700BF80EC210B704700BFF6
:100ED00090EC200B704700BF80EC200B704700BFE8
:100EE000D0EC200B704700BFC0EC200B704700BF58
:100EF000F0EC0201F0EC0211F0EC0221F0EC023116
:100F0000F0EC0241F0EC0251F0EC0261F0EC027105
:100F1000F0EC0281F0EC0291F0EC02A1F0EC02B1F5
:100F2000F0EC02C1F0EC02D1F0EC02E1F0EC02F1E5
:100F3000704700BFE0EC0201E0EC0211E0EC02219E
:100F4000E0EC0231E0EC0241E0EC0251E0EC026145
:100F5000E0EC0271E0EC0281E0EC0291E0EC02A135
:100F6000E0EC02B1E0EC02C1E0EC02D1E0EC02E125
:100F7000E0EC02F1704700BFB0FC0181B0FC0191D0
:100F8000B0FC01A1B0FC01B1704700BFA0FC018121
:100F9000A0FC0191A0FC01A1A0FC01B1704700BF21
:100FA000EC4600B52DE900502DE9FF1F4FF000037E
:100FB0002DE90C0001A9FFF7E1FBDDF840E012B0DC
:100FC000704700BFEC4600B52DE900502DE9FF1F2A
:100FD0004FF000032DE90C0001A9FFF70BFCDDF831
:100FE00040E012B0704700BFEC4600B52DE900505C
:100FF0002DE9FF1F4FF000032DE90C0001A9FFF7B9
:101000001BFCDDF840E012B0704700BFEC4600B5B5
:101010002DE900502DE9FF1F4FF000032DE90C00D2
:1010200001ABFFF7DFFBDDF840E012B0704700BF17
:10103000EC4600B52DE900502DE9FF1F4FF00003ED
:101040002DE90C0001AAFFF751FCDDF840E012B0D9
:10105000704700BF027A03467AB9427AA2B141686A
:10106000013A10B44272086803220C1D1A7202027F
:101070005C60000E10BC1A6070470068013A1A727A
:1010800002021A60000E7047B020704700B585B0AC
:10109000002303AA009219460C22FFF7DDFB0398F8
:1010A00005B05DF804FB00BFF0E700BF2DE9F04399
:1010B000054685B00E464FF000083046FFF7CAFFE0
:1010C000B028044600F0BA80070620D500F0F003EF
:1010D000802B4DD0902B36D0A02B60D0B02B74D06D
:1010E000C02B00F08B8000F0F803D02B0BD100F068
:1010F00007020132052342F4002201212846FFF7AE
:1011000091FD0028D9D0092005B0BDE8F083830007
:10111000DBB21F1D0DF10C0900231946CDF800901C
:101120000D222846FFF798FB039BCDF80090600640
:101130004CBFDF1BFF1800230D22194628460397DA
:10114000FFF7B0FBB9E700F00D030D2BDBD003AFC9
:10115000002300F00F02194600972846FFF77CFB9A
:10116000002300970D2219462846FFF79BFBA4E7B2
:101170003046FFF76FFF24022043B0F5004FC2D086
:1011800004010023A2B219462846FFF74BFD0028B0
:10119000B9D114F4004F18BF4FF001088DE7C243D6
:1011A00002F007034FF47F621A41010702F47F62E5
:1011B0004FF0000348BF42F4804219462846FFF72B
:1011C00031FD00283FF479AF9DE7B1283BD0B2282C
:1011D00000F09380B32841D000F0FC03B42B92D0F0
:1011E00000F007020132012342F40022194628468A
:1011F000FFF718FD00283FF460AF84E7C6284AD007
:10120000C72854D000F0F803C02B63D0C82868D09A
:10121000C9287FF478AF3046FFF71CFF020300F0C7
:101220000F0002F4702201300243012105232846F9
:10123000FFF7F8FC00283FF440AF64E7B8F1000F77
:1012400018D0002060E73046FFF704FF0246002870
:101250003FF459AF10F0F003C8D054E73046FFF721
:10126000F9FE020300F00F03013302F470221A4367
:101270000123BBE703AC43460E22414600942846B7
:10128000FFF7EAFA009443460F2241462846FFF74B
:1012900009FB404638E73046FFF7DCFE020300F06A
:1012A0000F03013302F470221A4303239EE73046F2
:1012B000FFF7D0FE024600283FF425AF10F0F00300
:1012C0007FF421AF04212846FFF7ACFC00283FF44F
:1012D000F4AE18E700F00F020132032342F420229B
:1012E00084E73046FFF7B6FE00F0F00200F00F038F
:1012F0001032013343EA023297E700230DF10C0963
:101300000D221946CDF800902846FFF7A5FA304681
:10131000FFF7A0FE02064FF002040CD5039B00F07D
:101320007F00A040184403903046FFF793FE030669
:1013300004F10704F2D4039BCDF8009000F07F0283
:10134000A24003F501731A440023039219460D22AB
:101350002846FFF7A7FAB0E610B5C26C536884B010
:101360004FF0030C08321C0208461B0E01A9019421
:1013700002928DF80CC08DF80D30FFF797FE04B087
:1013800010BD00BF08B5FFF78FFE806C08BD00BF21
:1013900008B5FFF789FEC06CC379023300EB830008
:1013A00008BD00BF704700BF844641EA000313F048
:1013B00003036DD1403A41D351F8043B40F8043B5C
:1013C00051F8043B40F8043B51F8043B40F8043B1F
:1013D00051F8043B40F8043B51F8043B40F8043B0F
:1013E00051F8043B40F8043B51F8043B40F8043BFF
:1013F00051F8043B40F8043B51F8043B40F8043BEF
:1014000051F8043B40F8043B51F8043B40F8043BDE
:1014100051F8043B40F8043B51F8043B40F8043BCE
:1014200051F8043B40F8043B51F8043B40F8043BBE
:1014300051F8043B40F8043B403ABDD2303211D35E
:1014400051F8043B40F8043B51F8043B40F8043B9E
:1014500051F8043B40F8043B51F8043B40F8043B8E
:10146000103AEDD20C3205D351F8043B40F8043B5E
:10147000043AF9D2043208D0D2071CBF11F8013B5C
:1014800000F8013B01D30B8803806046704700BF22
:10149000082A13D38B078DD010F003038AD0C3F131
:1014A0000403D21ADB071CBF11F8013B00F8013B13
:1014B00080D331F8023B20F8023B7BE7043AD9D3D2
:1014C000013A11F8013B00F8013BF9D20B780370A7
:1014D0004B7843708B7883706046704738B51F4CEB
:1014E0000021204602F010FA1D4D0821284602F086
:1014F0000BFA0C21284602F007FA0421204602F0DC
:1015000003FA0821204602F0FFF90C21204602F0E0
:10151000FBF9144C0021204602F0F6F90421204684
:1015200002F0F2F9104C0021204602F0EDF90421FE
:10153000204602F0E9F90821204602F0E5F90C21E5
:10154000204602F0E1F9094C0821204602F0DCF9BE
:101550000C21204602F0D8F938BD00BFB8090020A0
:101560007009002028090020E0080020000A00205F
:1015700008B50368094A1268934204D0084A126801
:10158000934205D008BD074B186803F090F8F9E7BF
:10159000054B186803F08BF8F4E700BF080B002038
:1015A000500B0020880800207C08002010B582B075
:1015B000002401940D4B1A6B42F480021A631B6BDA
:1015C00003F480030193019B22460521392000F09A
:1015D000D1FE392000F006FF224605213A2000F016
:1015E000C9FE3A2000F0FEFE02B010BD00380240F5
:1015F00008B5154A0021012002F0CBFF134B1860FB
:10160000134A0021012002F0C4FF124B1860124A55
:101610000021124802F050FF114B1860114A0021BE
:10162000114802F049FF114B1860114A002111487E
:1016300002F042FF104B1860104A0021104802F0DF
:101640003BFF104B186008BDD87900087C080020CB
:10165000307A0008880800200C7A0008DD71000844
:1016600084080020E87900087D71000880080020C7
:10167000407A0008ED7100088C080020647A0008A8
:10168000C972000890080020F0B58BB000240594C2
:1016900006940794089409940194244B1A6B42F021
:1016A00080021A631A6B02F080020192019A02947E
:1016B0001A6B42F004021A631A6B02F004020292DF
:1016C000029A03941A6B42F001021A631A6B02F039
:1016D00001020392039A04941A6B42F002021A6305
:1016E0001B6B03F002030493049B114F2246042159
:1016F000384601F0DDF90F4D22463021284601F031
:10170000D7F904230593012606960794089405A9A2
:10171000384601F0DBF830230593069607940894C9
:1017200005A9284601F0D2F80BB0F0BD0038024000
:10173000000802400004024008B50268034B9A42C8
:1017400000D008BD00F0F2FDFBE700BF000C004038
:1017500072B6FEE700B595B03022002108A805F06A
:1017600027FE0023039304930593069307930193A5
:10177000204A116C41F080511164126C02F08052C9
:101780000192019A02931C4B1A6842F480421A603B
:101790001B6803F480430293029B012308934FF4D8
:1017A0008033099302220E924FF480030F93042397
:1017B0001093A82111911292139308A801F088F9AF
:1017C00098B90F23039302230493002305934FF446
:1017D000A05306934FF480530793052103A801F00B
:1017E000DDFB20B915B05DF804FBFFF7B1FFFFF793
:1017F000AFFF00BF003802400070004008B5124B38
:1018000001221A60114A936823F00303936000F0E9
:1018100073FDFFF79FFFFFF737FFFFF7C7FE00F0ED
:101820000DFA00F0BDFA00F029FB00F00BFC00F00F
:10183000B3FB00F051FC00F069FC02F00FFEFFF773
:10184000D7FE02F01DFEFEE70000474200380240CE
:1018500000B583B0002200920D4B596C41F48041D9
:101860005964596C01F48041009100990192196CFE
:1018700041F0805119641B6C03F080530193019B6C
:101880000F216FF0010000F075FD03B05DF804FB5F
:101890000038024030B589B0044600230193214B43
:1018A0001A6C42F008021A641B6C03F008030193DF
:1018B000019B02A903A801F047FC069BCBB901F0EC
:1018C00023FC03461848A0FB03239B0C013B17484D
:1018D000174A026040F2E732C260436000230361AE
:1018E0008360836101F076FE054630B1284609B079
:1018F00030BD01F009FC4300E4E70C4801F006FDAF
:1019000005460028F2D1322000F06CFD0F2C01D9E1
:101910000125EBE700222146322000F02BFD054B8C
:101920001C60E3E70038024083DE1B43940800207C
:10193000000C004008000020FEE7FEE7FEE7FEE79F
:10194000FEE7704708B5024802F0B0FA08BD00BFD4
:10195000080B002008B5024801F020FD08BD00BFBB
:101960009408002008B5024800F0C2FE08BD00BF80
:10197000A80A002008B5024800F0BAFE08BD00BF62
:10198000480A002008B5024802F090FA08BD00BFDE
:10199000500B00200120704708B505F0DFFC16232E
:1019A00003604FF0FF3008BD08B54FF0FF31FFF77F
:1019B000F3FFFEE710B503460C4A0D490D480068D9
:1019C00040B10C4800680344521A934206D8094AB1
:1019D000136010BD0748084C0460F2E705F0BEFC38
:1019E0000C2303604FF0FF30F3E700BF000002203C
:1019F00000040000DC080020F05F0020034AD2F859
:101A0000883043F47003C2F88830704700ED00E07E
:101A100084B00368184A934207D0B3F1804F11D0C5
:101A2000164A93421BD004B0704700230193144B15
:101A30005A6C42F001025A645B6C03F0010301939B
:101A4000019BF0E7002302930D4B1A6C42F0010258
:101A50001A641B6C03F001030293029BE3E700236B
:101A60000393074B1A6C42F002021A641B6C03F0DA
:101A700002030393039BD6E70000014000040040EB
:101A80000038024082B00368104A934204D0104AE2
:101A900093420ED002B07047002300930D4B1A6C96
:101AA00042F004021A641B6C03F004030093009BD1
:101AB000F0E700230193074B1A6C42F040021A64CE
:101AC0001B6C03F040030193019BE3E70008004017
:101AD000001800400038024030B58DB00023079355
:101AE000089309930A930B9303684D4A93420DD0D0
:101AF000B3F1804F22D04B4A934237D04A4A9342A7
:101B00005ED04A4A934272D00DB030BD002301939B
:101B1000474B1A6B42F001021A631B6B03F001037F
:101B20000193019B4FF470630793022308930123F1
:101B30000B9307A93F4800F0C9FEE5E70023029395
:101B40003B4B1A6B42F002021A631B6B03F0020359
:101B50000293029B4FF440630793022308930123EF
:101B60000B9307A9344800F0B1FECDE7002503959B
:101B70002F4B1A6B42F001021A631A6B02F001023A
:101B80000392039A04951A6B42F002021A631B6BCC
:101B900003F002030493049BC023079302240894D8
:101BA0000B9407A9234800F091FE032307930894A0
:101BB00009950A950B9407A91F4800F087FEA3E733
:101BC000002305931A4B1A6B42F002021A631B6B37
:101BD00003F002030593059B4FF440730793022320
:101BE00008930B9307A9144800F070FE8CE70023BC
:101BF00006930F4B1A6B42F002021A631B6B03F041
:101C000002030693069B4FF4404307930223089375
:101C100009230B9307A9084800F058FE74E700BF9A
:101C2000000001400004004000080040001800408F
:101C300000380240000002400004024010B596B097
:101C400000241294139414941594109411940994EC
:101C50000A940B940C940D940E940F942022214618
:101C600001A805F0A5FB4C484C4B0360A72343603B
:101C7000846044F61F63C36004614461846101F0C1
:101C8000A9FC00286CD14FF48053129312A942484A
:101C900001F0ABFD002866D13F4801F0C7FC0028E9
:101CA00064D100231093119310A93B4801F0AEFEBC
:101CB00000285ED16023099340F2DC530A9300228E
:101CC0000B920C920D920E920F9209A9324801F0DC
:101CD00011FD002850D130480268936923F00803B1
:101CE000936140F2A2330A93042209A901F002FD94
:101CF000002844D128480268936923F40063936163
:101D00004FF4FA730A93082209A901F0F3FC0028A2
:101D100038D121480268D36923F00803D36140F227
:101D2000E4730A930C2209A901F0E4FC68BB1A4889
:101D30000268D36923F40063D36100230193029303
:101D40000393049305934FF400520692089301A95C
:101D500001F0A2FEE0B91048FFF7BEFE16B010BDBC
:101D6000FFF7F6FC8FE7FFF7F3FC95E7FFF7F0FCD2
:101D700097E7FFF7EDFC9DE7FFF7EAFCABE7FFF71E
:101D8000E7FCB7E7FFF7E4FCC3E7FFF7E1FCCEE7CA
:101D9000FFF7DEFCDFE700BFE008002000000140A5
:101DA00000B58FB000230A930B930C930D93089307
:101DB0000993019302930393049305930693079366
:101DC0002D484FF08042026006224260836047F255
:101DD0002F52C2600361836101F0FCFB002839D1FE
:101DE0004FF480530A930AA9234801F0FEFC00280F
:101DF00033D1214801F01AFC002831D10023089387
:101E0000099308A91C4801F001FE60BB60230193FF
:101E100040F6CA030293002303930593082201A905
:101E2000154801F067FC08BB13480268D36923F02A
:101E30000803D3610C2201A901F05CFCC8B90E486B
:101E40000268D36923F40063D361FFF745FE0FB046
:101E50005DF804FBFFF77CFCC2E7FFF779FCC8E7FD
:101E6000FFF776FCCAE7FFF773FCCFE7FFF770FCDC
:101E7000DAE7FFF76DFCE2E77009002000B58FB0EC
:101E800000230A930B930C930D93089309930193EA
:101E90000293039304930593069307933C483D4AAA
:101EA000026006224260836047F22F52C2600361E3
:101EB000836101F08FFB002851D14FF480530A93C6
:101EC0000AA9334801F091FC00284BD1304801F0B9
:101ED000ADFB002849D100230893099308A92C4899
:101EE00001F094FD002843D16023019340F6CA031A
:101EF000029300220392059201A9254801F0FAFB02
:101F0000002838D122480268936923F008039361BE
:101F100004220DEB020101F0EDFB78BB1C480268C6
:101F2000936923F400639361082201A901F0E2FBA5
:101F300038BB17480268D36923F00803D3610C2229
:101F400001A901F0D7FBF8B911480268D36923F45D
:101F50000063D361FFF7C0FD0FB05DF804FBFFF72E
:101F6000F7FBAAE7FFF7F4FBB0E7FFF7F1FBB2E7F7
:101F7000FFF7EEFBB8E7FFF7EBFBC3E7FFF7E8FB84
:101F8000CCE7FFF7E5FBD4E7FFF7E2FBDCE700BFB8
:101F9000B80900200004004000B58BB0002308936E
:101FA0000993019302930393049305930693079374
:101FB0002248234A0260A7224260836044F61F62DF
:101FC000C2600361836101F031FB58BB00230893B9
:101FD000099308A9194801F019FD30BB602301934A
:101FE0004FF448730293002303930593082201A939
:101FF000124801F07FFBD8B910480268D36923F07A
:102000000803D3610C2201A901F074FB98B90B48B5
:102010000268D36923F40063D361FFF75DFD0BB061
:102020005DF804FBFFF794FBD0E7FFF791FBD5E7E2
:10203000FFF78EFBE0E7FFF78BFBE8E7000A0020E5
:102040000008004000B589B0002301930293039378
:1020500004930593069307931D481E4A02600622C7
:102060004260836047F22F52C2600361836101F0D6
:10207000DDFA18BB6023019340F6CA0302930022E5
:102080000392059201A9124801F034FBC8B9104827
:102090000268936923F00803936104220DEB0201A7
:1020A00001F028FB80B90A480268936923F40063B1
:1020B0009361FFF711FD09B05DF804FBFFF748FBE2
:1020C000D8E7FFF745FBE2E7FFF742FBEBE700BF8E
:1020D000280900200018004008B50A480A4B036090
:1020E0004FF4E133436000238360C36003610C223B
:1020F00042618361C36101F0F1FD00B908BDFFF7E2
:1021000027FBFBE7080B00200010014008B50A4838
:102110000A4B03604FF46123436000238360C36074
:1021200003610C2242618361C36101F0D7FD00B9F4
:1021300008BDFFF70DFBFBE7500B0020001401402A
:1021400030B58BB00446002305930693079308939C
:10215000099303684A4A934204D04A4A934249D0B9
:102160000BB030BD00250195474B5A6C42F0100270
:102170005A645A6C02F010020192019A02951A6B8D
:1021800042F002021A631B6B03F002030293029BEC
:10219000C02305930223069303230893072309937F
:1021A00005A93A4800F092FB39483A4B03604FF0DA
:1021B000006343608560C5604FF4806303614561DF
:1021C00085614FF48073C3614FF44033036245620D
:1021D00000F096F958B92E4BE3639C630022052169
:1021E000252000F0C7F8252000F0FCF8B8E7FFF73D
:1021F000AFFAF0E700250395234B5A6C42F020021A
:102200005A645A6C02F020020392039A04951A6BE6
:1022100042F004021A631B6B03F004030493049B53
:10222000C0230593022306930323089308230993ED
:1022300005A9194800F04AFB1848194B03604FF0F4
:10224000206343608560C5604FF48063036145612E
:1022500085614FF48073C3610562456200F050F9F7
:1022600058B90E4BE3639C6300220521472000F020
:1022700081F8472000F0B6F872E7FFF769FAF0E757
:1022800000100140001401400038024000040240E8
:10229000480A00204064024000080240A80A0020CA
:1022A00028640240DFF834D00D480E490E4A00235E
:1022B00002E0D458C4500433C4188C42F9D30B4AFA
:1022C0000B4C002301E013600432A242FBD3FFF762
:1022D00095FB05F049F8FFF791FA704700000220DE
:1022E000000000205C0800207C7C000860080020C2
:1022F000EC5F0020FEE7000008B50B4B1A6842F4C3
:1023000000721A601A6842F480621A601A6842F415
:1023100080721A60032000F01BF80F20FFF7BAFA52
:10232000FFF796FA002008BD003C0240034A1168FE
:10233000034B1B780B441360704700BF980B0020C1
:1023400004000020014B1868704700BF980B002064
:10235000074AD36823F4E0631B041B0C000200F45B
:10236000E060034343F0BF6343F40033D36070473E
:1023700000ED00E000B5194BDB68C3F30223C3F1A5
:10238000070CBCF1040F28BF4FF0040C03F1040E3E
:10239000BEF1060F18D9033B4FF0FF3E0EFA0CFCBE
:1023A00021EA0C0199400EFA03F322EA03031943D0
:1023B00000280BDB0901C9B200F1604000F5614063
:1023C00080F800135DF804FB0023E5E700F00F0040
:1023D0000901C9B2024B1954F4E700BF00ED00E057
:1023E00014ED00E0002807DB00F01F024009012384
:1023F0009340024A42F82030704700BF00E100E0FD
:1024000030B405682C6824F480242C600468636070
:102410008368402B05D0036899600368DA6030BC9C
:10242000704703689A600368D960F8E710B40368DE
:10243000D9B210390C4AA2FB014212090B4CA25C22
:10244000C2655F2909D923F47F7323F003030433A2
:102450008365806D5DF8044B704723F47F7323F030
:1024600003038365F5E700BFABAAAAAAA07A000818
:10247000836A826992B9012B0AD0022B02D00BB178
:1024800000207047C36A13F0807F28D10020704776
:10249000C36AB3F1C07F24D000207047B2F5005F5B
:1024A00009D0022B25D9032B25D1C36A13F0807FD5
:1024B00023D100207047032B03D8DFE803F0140476
:1024C000140A00207047C36A13F0807F0DD10020EA
:1024D0007047C36AB3F1C07F09D000207047012064
:1024E000704701207047012070470120704701208C
:1024F000704701207047002070470120704700009E
:1025000070B50446FFF71EFF002C5BD00546022382
:1025100084F83530002384F834302268136823F0BF
:102520000103136023681A6812F0010F0AD0FFF745
:1025300009FF431B052BF5D920236365032084F88D
:10254000350070BD1A68204810406168A2680A43CF
:10255000E1680A4321690A4361690A43A1690A43A0
:10256000E1690A43216A0A430243616A04291ED0D1
:102570001A602668756925F00705636A1D43042BF8
:1025800007D1A36A1D43E36A1BB12046FFF770FF22
:1025900090B975612046FFF749FFE26D3F239340F4
:1025A000836000206065012384F83530C9E7E16A63
:1025B000206B01430A43DBE740236365012084F875
:1025C0003500BEE70120BCE73F8010F038B5044677
:1025D000856D90F8340001282BD0012084F8340058
:1025E00094F83500C0B2012804D0002384F83430B8
:1025F000022038BD022084F83500002060652046A6
:10260000FFF7FEFEE26D3F239340AB602268136844
:1026100043F016031360236C23B12268136843F060
:10262000080313602268136843F00103136000205D
:10263000DFE70220DDE770B50446866DFFF782FE16
:1026400094F83530DBB2022B06D08023636500237B
:1026500084F83430012070BD05462268136823F0E9
:10266000160313602268536923F080035361236CBF
:10267000E3B12268136823F008031360226813682B
:1026800023F00103136023681B6813F0010F11D0BE
:10269000FFF758FE431B052BF5D920236365032064
:1026A00084F83500002384F83430D4E7A36C002B81
:1026B000DFD1E3E7E26D3F239340B360012384F869
:1026C0003530002084F83400C5E790F83530DBB2AF
:1026D000022B03D08023436501207047052380F837
:1026E00035300268136823F001031360002070473F
:1026F000F0B583B0044600230193724B1D68724B02
:10270000A3FB0535AD0A876D3E68C26D0823934073
:10271000334210D003681A6812F0040F0BD01A6805
:1027200022F004021A60C26D08239340BB60436D1F
:1027300043F001034365E26D01239340334209D026
:102740002268526912F0800F04D0BB60636D43F0C1
:1027500002036365E26D04239340334209D022688B
:10276000126812F0020F04D0BB60636D43F00403E3
:102770006365E26D10239340334224D022681268CF
:1027800012F0080F1FD0BB6023681A6812F4802F64
:102790000DD01B6813F4002F04D1236C9BB120468D
:1027A000984710E0A36C73B1204698470BE01A6875
:1027B00012F4807F03D11A6822F008021A60236C99
:1027C0000BB120469847E26D20239340334255D009
:1027D0002268126812F0100F50D0BB6094F83530A8
:1027E000DBB2052B0ED023681A6812F4802F33D089
:1027F0001B6813F4002F2AD1636C002B3ED02046B7
:1028000098473BE02268136823F0160313602268A0
:10281000536923F080035361236CA3B122681368CA
:1028200023F008031360E26D3F239340BB60012354
:1028300084F83530002384F83430236D002B3FD0EA
:10284000204698473CE0A36C002BE7D1EBE7E36B15
:10285000A3B12046984711E01A6812F4807F09D18D
:102860001A6822F010021A60012384F83530002320
:1028700084F83430E36B0BB120469847636DFBB1AD
:10288000636D13F0010F17D0052384F835302268EB
:10289000136823F001031360019B01330193AB42E2
:1028A00004D823681B6813F0010FF5D1012384F8C5
:1028B0003530002384F83430E36C0BB12046984760
:1028C00003B0F0BD00000020B5814E1B00230F2B8C
:1028D00000F2E48070B582B060E085685E00032499
:1028E000B44025EA0405CC68B4402C4384604568B4
:1028F00025EA02054C68C4F300129A402A4342605C
:102900005AE0DC08083450F8246003F00702950010
:102910000F22AA4026EA020E0A69AA4042EA0E02E3
:1029200040F824205CE0072200E0002202FA0EF2C8
:102930002A4302345A4D45F824205A4A94686FEAD3
:102940000C0224EA0C054E6816F4801F01D04CEAF4
:102950000405544CA560E46802EA04054E6816F4C8
:10296000001F01D04CEA04054E4CE560646802EAA1
:1029700004054E6816F4003F01D04CEA0405494CAA
:102980006560246822404D6815F4803F01D04CEA10
:102990000402444C226001330F2B7DD801229A405F
:1029A0000C6804EA020C32EA0404F4D14C6804F026
:1029B0000304013C012C90D94A6802F00302032A67
:1029C00009D0C4685D000322AA4024EA02048A6890
:1029D000AA402243C2604A6802F00302022A90D051
:1029E00004684FEA430E032202FA0EF224EA0204BC
:1029F0004A6802F0030202FA0EF2224302604A68B9
:102A000012F4403FC7D000220192274A546C44F48C
:102A100080445464526C02F480420192019A9C08F2
:102A2000A51C1F4A52F8255003F003024FEA820EFC
:102A30000F2202FA0EF225EA02051C4A90423FF4E8
:102A400074AF02F5806290421AD002F58062904223
:102A500018D002F58062904216D002F58062904252
:102A600014D002F58062904212D002F5806290424A
:102A700010D002F5806290423FF455AF082255E72E
:102A8000012253E7022251E703224FE704224DE7D8
:102A900005224BE7062249E702B070BD704700BF30
:102AA00000380140003C0140003802400000024074
:102AB0000AB181617047090481617047436901EA85
:102AC000030221EA030141EA0241816170470000EB
:102AD000002800F0E08170B582B00446036813F06E
:102AE000010F3BD09F4B9B6803F00C03042B2CD0B1
:102AF0009C4B9B6803F00C03082B21D06368B3F553
:102B0000803F4FD0B3F5A02F52D0964B1A6822F4D5
:102B100080321A601A6822F480221A606368002BDF
:102B200050D0FFF70FFC05468E4B1B6813F4003F97
:102B300014D1FFF707FC401B6428F5D90320B1E14D
:102B4000884B5B6813F4800FD8D0864B1B6813F456
:102B5000003F03D06368002B00F09F81236813F0CF
:102B6000020F54D07F4B9B6813F00C0F3ED07D4B6F
:102B70009B6803F00C03082B33D0E368002B68D06C
:102B8000794B01221A60FFF7DDFB0546754B1B6888
:102B900013F0020F54D1FFF7D5FB401B0228F5D9E3
:102BA00003207FE16F4A136843F480331360B5E775
:102BB0006C4B1A6842F480221A601A6842F4803220
:102BC0001A60ABE7FFF7BEFB0546664B1B6813F4C4
:102BD000003FC3D0FFF7B6FB401B6428F5D90320A4
:102BE00060E1604B5B6813F4800FC6D15D4B1B68DE
:102BF00013F0020F03D0E368012B40F05081594AD3
:102C0000136823F0F803216943EAC10313602368C2
:102C100013F0080F42D063696BB3534B0122C3F822
:102C2000802EFFF78FFB05464E4B5B6F13F0020FB4
:102C300034D1FFF787FB401B0228F5D9032031E18F
:102C4000484A136823F0F803216943EAC10313607B
:102C5000DDE7454B00221A60FFF774FB0546414B48
:102C60001B6813F0020FD2D0FFF76CFB401B022849
:102C7000F5D9032016E13C4B0022C3F8802EFFF764
:102C800061FB0546374B5B6F13F0020F06D0FFF771
:102C900059FB401B0228F5D9032003E1236813F0F8
:102CA000040F77D02F4B1B6C13F0805F33D10023C0
:102CB00001932C4B1A6C42F080521A641B6C03F087
:102CC00080530193019B0125284B1B6813F4807FDF
:102CD00023D0A368012B34D0052B38D0214B1A6F99
:102CE00022F001021A671A6F22F004021A67A36821
:102CF000002B3DD0FFF726FB06461A4B1B6F13F047
:102D0000020F46D1FFF71EFB801B41F28833984229
:102D1000F3D90320C6E00025D6E7144A136843F42C
:102D200080731360FFF70EFB0646104B1B6813F40D
:102D3000807FCED1FFF706FB801B0228F5D9032048
:102D4000B0E0084A136F43F001031367CFE7054B68
:102D50001A6F42F004021A671A6F42F001021A67F2
:102D6000C5E700BF00380240000047420070004045
:102D7000FFF7E8FA0646524B1B6F13F0020F08D01C
:102D8000FFF7E0FA801B41F288339842F3D9032021
:102D900088E0EDB9A369002B00F08380484A92686F
:102DA00002F00C02082A51D0022B17D0454B00220A
:102DB0001A66FFF7C7FA0446414B1B6813F0007F01
:102DC00042D0FFF7BFFA001B0228F5D9032069E0C3
:102DD0003B4A136C23F080531364DBE7394B00222A
:102DE0001A66FFF7AFFA0546354B1B6813F0007FF4
:102DF00006D0FFF7A7FA401B0228F5D9032051E0BF
:102E0000E369226A1343626A43EA8213A26A5208A0
:102E1000013A43EA0243E26A43EA0263284A536002
:102E2000284B01221A66FFF78DFA0446244B1B68D3
:102E300013F0007F06D1FFF785FA001B0228F5D9B1
:102E400003202FE000202DE000202BE0012B2BD0D1
:102E50001B4B5B6803F48001E269914226D103F0C9
:102E60003F02216A8A4223D1616A47F6C0721A4042
:102E7000B2EB811F1ED103F44031A26A5208013A1D
:102E8000B1EB024F18D103F07063E26AB3EB026F4B
:102E900014D1002006E001207047012002E001204B
:102EA00000E0002002B070BD0120FBE70120F9E73F
:102EB0000120F7E70120F5E70120F3E70120F1E722
:102EC000003802400000474208B5314B9B6803F0D0
:102ED0000C03042B57D0082B57D12D4B5A6802F006
:102EE0003F025B6813F4800F2AD0294B5968C1F365
:102EF000881C4FEA4C11B1EB0C006EEB0E0E4FEA42
:102F00008E1343EA90638101091A63EB0E03DB0021
:102F100043EA5173C90011EB0C0C43F10003590251
:102F200000234FEA4C2041EADC51FDF751F9184BE0
:102F30005B68C3F3014301335B00B0FBF3F025E0B2
:102F4000134B5968C1F3881C4FEA4C11B1EB0C00CC
:102F50006EEB0E0E4FEA8E1343EA90638101091A5D
:102F600063EB0E03DB0043EA5173C90011EB0C0C59
:102F700043F10003990200234FEA8C2041EA9C515F
:102F8000FDF726F9D3E7034800E0034808BD00BF7A
:102F90000038024000127A000024F400002800F0FB
:102FA0009B8070B50D4604464F4B1B6803F007032A
:102FB0008B4208D2CBB24C4A1370136803F007035C
:102FC0008B4240F08B80236813F0020F17D013F070
:102FD000040F04D0454A936843F4E0539360236898
:102FE00013F0080F04D0414A936843F460439360A0
:102FF0003E4A936823F0F003A1680B439360236873
:1030000013F0010F32D06368012B21D09A1E012AE0
:1030100025D9364A126812F0020F61D033498A6806
:1030200022F0030213438B60FFF78CF906462F4B07
:103030009B6803F00C036268B3EB820F16D0FFF7B6
:1030400081F9801B41F288339842F0D9032042E095
:10305000264A126812F4003FE0D101203BE0234AE7
:10306000126812F0007FD9D1012034E01E4B1B689A
:1030700003F00703AB4207D9EAB21B4B1A701B6877
:1030800003F00703AB422DD1236813F0040F06D0E1
:10309000164A936823F4E053E1680B439360236876
:1030A00013F0080F07D0114A936823F46043216995
:1030B00043EAC1039360FFF707FF0C4B9B68C3F320
:1030C00003130B4AD35CD8400A4B18600A4B1868AC
:1030D000FEF7E0FB002070BD012070470120FAE7F9
:1030E0000120F8E70120F6E7003C024000380240EA
:1030F000887A00080000002008000020014B1868B2
:10310000704700BF0000002008B5FFF7F7FF044B31
:103110009B68C3F38223034AD35CD84008BD00BF39
:1031200000380240987A000808B5FFF7E7FF044B23
:103130009B68C3F34233034AD35CD84008BD00BF49
:1031400000380240987A00080F2303600B4B9A68FE
:1031500002F0030242609A6802F0F00282609A680C
:1031600002F4E052C2609B68DB0803F4E0530361A1
:10317000034B1B6803F007030B60704700380240E5
:10318000003C024030B4036A026A22F0010202628B
:103190004268846924F073040D682C4323F0020C08
:1031A0008B6843EA0C03104DA84203D005F58065F7
:1031B000A84205D123F00803CD682B4323F0040374
:1031C000094DA84203D005F58065A84205D122F437
:1031D00040724D692A438D692A43426084614A687E
:1031E0004263036230BC70470000014030B4036AA0
:1031F000026A22F4807202624268C46924F0730C8D
:103200000C6844EA0C0523F400738C6843EA042339
:10321000114CA04203D004F58064A04206D123F4EF
:103220000063CC6843EA042323F480630A4CA04281
:1032300003D004F58064A04207D122F440524C69C7
:1032400042EA04128C6942EA04124260C5614A688B
:10325000C263036230BC70470000014030B4036AAF
:10326000026A22F4805202624468C26922F4E64291
:103270000D6842EA052223F400538D6843EA0533C2
:10328000094DA84203D005F58065A84204D124F475
:1032900080444D6944EA85144460C2614A6802640E
:1032A000036230BC704700BF0000014010B4036AE5
:1032B000046A24F001040462846924F0F00C4CEAEE
:1032C000021223F00A030B43826103625DF8044B90
:1032D000704710B4036A046A24F01004046284691D
:1032E00024F4704C4CEA023223F0A00343EA0113A9
:1032F000826103625DF8044B7047836823F07003BA
:103300000B4343F0070383607047000090F83D30A3
:10331000DBB2012B37D1022380F83D300268D3683D
:1033200043F00103D3600368194A934220D0B3F1FC
:10333000804F1DD0A2F57C42934219D002F58062E5
:10334000934215D002F58062934211D002F5784283
:1033500093420DD002F57052934209D0A2F59432F7
:10336000934205D01A6842F001021A6000207047AB
:103370009A6802F00702062A07D01A6842F0010292
:103380001A6000207047012070470020704700BF7E
:1033900000000140704770477047704770B50446A1
:1033A0000368DE681D6915F0020F10D016F0020FD9
:1033B0000DD06FF002021A610123037703689B6945
:1033C00013F0030F5ED0FFF7E6FF0023237715F01D
:1033D000040F12D016F0040F0FD023686FF0040210
:1033E0001A610223237723689B6913F4407F4FD02F
:1033F0002046FFF7D0FF0023237715F0080F12D0E7
:1034000016F0080F0FD023686FF008021A6104232A
:1034100023772368DB6913F0030F40D02046FFF7C2
:10342000BAFF0023237715F0100F12D016F0100FFB
:103430000FD023686FF010021A61082323772368E6
:10344000DB6913F4407F31D02046FFF7A4FF00234F
:10345000237715F0010F02D016F0010F2DD115F0D2
:10346000800F02D016F0800F2FD115F0400F02D040
:1034700016F0400F31D115F0200F02D016F0200FBA
:1034800033D170BDFFF786FF2046FFF785FF9CE72D
:103490002046FFF77FFF2046FFF77EFFABE7204681
:1034A000FFF778FF2046FFF777FFBAE72046FFF7E0
:1034B00071FF2046FFF770FFC9E723686FF0010234
:1034C0001A612046FEF738F9C9E723686FF08002D9
:1034D0001A61204600F00AFBC7E723686FF040023C
:1034E0001A612046FFF759FFC5E723686FF02002F5
:1034F0001A61204600F0F9FAC3E700000368344A75
:10350000904212D0B0F1804F0FD0A2F57C42904291
:103510000BD002F58062904207D002F580629042A3
:1035200003D002F57842904203D123F070034A6839
:103530001343274A90422AD0B0F1804F27D0A2F5FA
:103540007C42904223D002F5806290421FD002F567
:10355000806290421BD002F57842904217D002F56B
:103560007052904213D002F5806290420FD002F563
:10357000806290420BD0A2F59832904207D002F5BB
:103580008062904203D002F58062904203D123F41E
:103590004073CA68134323F080034A6913430360EE
:1035A0008B68C3620B688362094B984203D003F5B2
:1035B0008063984201D10B6903630123436103696E
:1035C00013F0010F03D0036923F001030361704777
:1035D0000000014040B310B5044690F83D30F3B10F
:1035E000022384F83D30214651F8040BFFF786FF93
:1035F000012384F8463084F83E3084F83F3084F864
:10360000403084F8413084F8423084F8433084F804
:10361000443084F8453084F83D30002010BD80F8F7
:103620003C30FEF7F5F9DBE70120704740B310B5F9
:10363000044690F83D30F3B1022384F83D30214632
:1036400051F8040BFFF75AFF012384F8463084F841
:103650003E3084F83F3084F8403084F8413084F8BC
:10366000423084F8433084F8443084F8453084F89C
:103670003D30002010BD80F83C30FEF703FADBE758
:103680000120704730B4036A026A22F0100202621D
:103690004468826922F4E6420D6842EA052223F07A
:1036A00020038D6843EA0513114DA84203D005F5A8
:1036B0008065A84206D123F08003CD6843EA051354
:1036C00023F040030A4DA84203D005F58065A842C7
:1036D00007D124F440644D6944EA85048D6944EAC5
:1036E0008504446082614A688263036230BC70472B
:1036F0000000014038B590F83C30012B66D00446FC
:103700000D46012380F83C300C2A5AD8DFE802F03D
:10371000075959591B59595930595959440000688A
:10372000FFF730FD2268936943F008039361226834
:10373000936923F0040393612268936929690B4319
:10374000936100203EE00068FFF79CFF22689369C8
:1037500043F4006393612268936923F48063936167
:1037600022689369296943EA01239361002029E0D3
:103770000068FFF73BFD2268D36943F00803D3617B
:103780002268D36923F00403D3612268D3692969CD
:103790000B43D361002015E00068FFF75FFD22684E
:1037A000D36943F40063D3612268D36923F480634F
:1037B000D3612268D369296943EA0123D3610020D8
:1037C00000E00120002384F83C3038BD0220FCE7F3
:1037D00010B4846824F47F4C42EA03220A4342EA8C
:1037E0000C0282605DF8044B704790F83C30012B6E
:1037F00078D010B50446012380F83C30022380F8CD
:103800003D300268936823F47F4323F0770393608D
:103810000B68602B4CD029D8402B54D00CD9502B9E
:1038200022D1CA6849680068FFF740FD502120682E
:10383000FFF763FD002005E0202B0DD009D9302BC8
:103840000AD00120012384F83D30002384F83C3065
:1038500010BD0BB1102B05D119462068FFF74DFDA7
:103860000020EFE70120EDE70120EBE7B3F5805FF3
:1038700034D0B3F5005F0CD1CB684A688968006822
:10388000FFF7A6FF2268936843F48043936000200B
:10389000D8E7702B24D1CB684A6889680068FFF7A5
:1038A00097FF2268936843F0770393600020C9E78D
:1038B000CA6849680068FFF70CFD60212068FFF7BF
:1038C0001CFD0020BEE7CA6849680068FFF7EEFCEF
:1038D00040212068FFF711FD0020B3E70020B1E789
:1038E0000120AFE70220704701F01F01012303FA16
:1038F00001FC036A23EA0C030362036A02FA01F182
:103900000B4303627047000010B5044608460029C7
:1039100042D194F83E30DBB2013B18BF0123002BAB
:103920006ED1002851D1022384F83E300122014695
:103930002068FFF7D9FF2368334A934203D002F58A
:103940008062934203D15A6C42F400425A64236865
:103950002D4A934249D0B3F1804F46D0A2F57C4224
:10396000934242D002F5806293423ED002F58062DB
:1039700093423AD002F57842934236D002F5705223
:10398000934232D0A2F5943293422ED01A6842F07C
:1039900001021A60002032E0042908D008290DD065
:1039A00094F84130DBB2013B18BF0123B7E794F82C
:1039B0003F30DBB2013B18BF0123B0E794F8403041
:1039C000DBB2013B18BF0123A9E7042805D0082872
:1039D00007D0022384F84130A8E7022384F83F305F
:1039E000A4E7022384F84030A0E79A6802F00702B7
:1039F000062A07D01A6842F001021A60002010BDA2
:103A00000120FCE70020FAE70000014090F83C307C
:103A1000012B3DD010B4012380F83C30022380F804
:103A20003D3003685A689C6822F0700C0A6842EACC
:103A30000C025A600368174A93421AD0B3F1804FC0
:103A400017D0A2F57C42934213D002F580629342D4
:103A50000FD002F5806293420BD002F57842934278
:103A600007D002F57052934203D0A2F594329342EC
:103A700004D124F080044A6814439C60012380F838
:103A80003D30002380F83C3018465DF8044B704709
:103A9000022070470000014090F83C30012B22D0FA
:103AA000012380F83C30CB6823F440738A681343C9
:103AB00023F480634A68134323F400630A681343C2
:103AC00023F480530A69134323F400534A691343D0
:103AD00023F48043CA69134302685364002380F8C7
:103AE0003C301846704702207047704770470268A4
:103AF00002F10C0353E8003F23F0C0030C3242E80C
:103B000000310029F3D1202380F84130704702684A
:103B100002F10C0353E8003F23F490730C3242E8A7
:103B200000310029F3D1026802F1140353E8003F89
:103B300023F00103143242E800310029F3D1036B72
:103B4000012B05D0202380F8423000230363704707
:103B5000026802F10C0353E8003F23F010030C321B
:103B600042E800310029F3D1ECE790F84130DBB2B4
:103B7000212B01D0022070478368B3F5805F17D0F6
:103B8000036A5A1C02621A7803685A60C38C9BB29B
:103B9000013B9BB2C3844BB90268D36823F0800316
:103BA000D3600268D36843F04003D36000207047BD
:103BB0000369002BE4D1036A1B880268C3F308037E
:103BC0005360036A02330362E0E7000038B504463D
:103BD0000268136923F44053C1680B43136183687F
:103BE0000269134342691343C2691A430168CB68EF
:103BF00023F4164323F00C031343CB60026853698C
:103C000023F4407381690B4353610368314A934243
:103C100006D002F58062934202D0FFF775FA01E008
:103C2000FFF782FAE369B3F5004F29D000210318AA
:103C300049411B1841F10001C90041EA5371DB0001
:103C4000181863684FEA83024FEA937341F1000149
:103C5000FCF7BEFA204DA5FB00325109642303FB9B
:103C600011031B013233A5FB03235B0903F0F002B0
:103C700002EB011203F00F03216813448B6038BD7F
:103C80000023021843EB0301121841F10001C9009F
:103C900041EA5271D200101841F100016268921895
:103CA0005B41FCF795FA0C4DA5FB003251096423EA
:103CB00003FB1103DB003233A5FB03235B095A002E
:103CC00002F4F87202EB011203F0070321681344B7
:103CD0008B60D4E7001001401F85EB5160B310B535
:103CE000044690F8413013B3242384F8413022680D
:103CF000D36823F40053D3602046FFF767FF2268A0
:103D0000136923F4904313612268536923F02A0353
:103D100053612268D36843F40053D3600020606489
:103D2000202384F8413084F84230606310BD80F86D
:103D30004030FEF705FAD7E701207047704708B515
:103D40000168CA6822F04002CA60202280F841203F
:103D5000FFF7F4FF002008BD70477047704710B5AB
:103D6000846B23685A6994F84130DBB2212B10D060
:103D700023685A6902F0400294F84230DBB2222BE9
:103D800011D0636C43F0100363642046FFF7E6FF35
:103D900010BD02F08002002AEAD00023E38420460E
:103DA000FFF7A5FEE4E7002AEBD00023E3852046D9
:103DB000FFF7ADFEE5E708B5806B0023C385C3843C
:103DC000FFF7CCFF08BD90F84230DBB2222B69D15F
:103DD0008368B3F5805F4FD0826AB3F5805F04D00B
:103DE000002B56D10369002B53D103685B68137015
:103DF000836A01338362C38D9BB2013B9BB2C3854F
:103E0000002B51D100B583B00268D36823F02003A2
:103E1000D3600268D36823F48073D3600268536967
:103E200023F001035361202380F8423000234363D1
:103E3000036B012B33D100230363026802F10C03EF
:103E400053E8003F23F010030C3242E80031002910
:103E5000F3D103681A6812F0100F06D00022019205
:103E60001A6801925B680193019B818DFDF780FBCD
:103E7000002003B05DF804FB0269002AACD1826A1D
:103E800003685B68C3F308031380836A02338362A9
:103E9000B1E703685B6803F07F031370A8E7FFF7DF
:103EA0005BFFE5E7022070470020704730B583B024
:103EB000044602681368D068516913F00F0505D1F4
:103EC00013F0200F02D010F0200F19D12DB111F0F6
:103ED000010119D110F4907F16D1216B01297DD0F9
:103EE00013F0800F03D010F0800F40F0198113F011
:103EF000400F03D010F0400F40F0168103B030BDEA
:103F00002046FFF760FFF9E713F0010F06D010F429
:103F1000807F03D0626C42F00102626413F0040FF0
:103F200004D019B1626C42F00202626413F0020F15
:103F300004D019B1626C42F00402626413F0080FFD
:103F400007D010F0200F00D119B1626C42F00802C6
:103F50006264626C002AD1D013F0200F02D010F0FE
:103F6000200F29D123685B6903F04003626C12F0D3
:103F7000080F00D163B32046FFF7C9FD23685B69D2
:103F800013F0400F20D0226802F1140353E8003FE1
:103F900023F04003143242E800310029F3D1E36BEF
:103FA00073B1634A1A65E06BFEF78FFB0028A5D05A
:103FB000E06B036D9847A1E72046FFF704FFD1E7C8
:103FC0002046FFF7CBFE99E72046FFF7C7FE95E7AF
:103FD0002046FFF7C3FE002363648FE713F0100F42
:103FE0003FF47EAF10F0100F3FF47AAF002301933F
:103FF0001368019353680193019B536913F0400FB9
:1040000052D0E26B13685B689BB2002B3FF476AF33
:10401000A18D99427FF672AFE385D369B3F5807FB6
:1040200037D0226802F10C0353E8003F23F4807379
:104030000C3242E800310029F3D1226802F1140366
:1040400053E8003F23F00103143242E80031002915
:10405000F3D1226802F1140353E8003F23F0400338
:10406000143242E800310029F3D1202384F8423091
:1040700000232363226802F10C0353E8003F23F07E
:1040800010030C3242E800310029F3D1E06BFEF757
:10409000D2FA02236363A18DE38D9BB2C91A89B260
:1040A0002046FDF765FA29E7A18DE38D9BB2C91A79
:1040B00089B2E38D9BB2002B3FF420AF00293FF47F
:1040C0001DAF226802F10C0353E8003F23F4907304
:1040D0000C3242E800300028F3D1226802F11403C8
:1040E00053E8003F23F00103143242E80030002877
:1040F000F3D1202384F8423000232363226802F1A5
:104100000C0353E8003F23F010030C3242E8003068
:104110000028F3D1022363632046FDF729FAEDE678
:104120002046FFF722FDE9E62046FFF708FEE5E618
:10413000B73D000808B5806B01234363036B012B77
:1041400002D0FFF70AFE08BD818D4908FDF710FA7D
:10415000F9E708B50346806B1B681B6813F4807F82
:104160002BD10023C385026802F10C0353E8003F02
:1041700023F480730C3242E800310029F3D1026845
:1041800002F1140353E8003F23F00103143242E824
:1041900000310029F3D1026802F1140353E8003F13
:1041A00023F04003143242E800310029F3D12023E8
:1041B00080F84230036B012B07D000234363036B6D
:1041C000012B0FD0FFF7C8FD08BD026802F10C03F8
:1041D00053E8003F23F010030C3242E8003100297D
:1041E000F3D1EAE7818DFDF7C3F9EDE730B583B090
:1041F000044613468162828500254564222280F8A8
:104200004220C26B1F48D063E26B1F481064E26B10
:104210001E48D064E26B156520680A46011DE06BFC
:10422000FEF7D4F9019523681A6801925B6801933F
:10423000019B23695BB1226802F10C0353E8003F44
:1042400043F480730C3242E800310029F3D1226834
:1042500002F1140353E8003F43F00103143242E833
:1042600000310029F3D1226802F1140353E8003F22
:1042700043F04003143242E800310029F3D100201A
:1042800003B030BD53410008354100085F3D0008D0
:1042900090F84230DBB2202B29D110B582B0044611
:1042A00039B312B9012002B010BD0123036300230A
:1042B0004363FFF79BFF0028F5D1236B012B01D04F
:1042C0000120F0E70023019323681A6801925B68DC
:1042D0000193019B226802F10C0353E8003F43F075
:1042E00010030C3242E800310029F3D1DBE7022051
:1042F00070470120D7E70000184B002283F83020D8
:10430000012283F83120022283F83220032283F82D
:104310003320042283F83420052283F83520062236
:1043200083F83620072283F83720082283F83820C4
:10433000092283F839200A2283F861200B2283F8AE
:1043400062200C2283F863200D2283F864200E2261
:1043500083F865200F2283F8662070479C0B0020AD
:10436000D1ED007AF4EEC07AF1EE10FA01DD81EDC4
:10437000000AD1ED007AB1EE400AF4EEC07AF1EE17
:1043800010FA01D581ED000A704710B5044680EDA2
:10439000060AC0ED040A70EEC00AC0ED080AD0EDAE
:1043A000007A60EEA77AC0ED097AD0ED017A20EEAE
:1043B000A77AD0ED0A7A77EE877AC0ED0A7AD0ED47
:1043C000027A90ED070A70EEC00A67EEA00AC0ED0F
:1043D0000B0A90ED0F0A00F12801FFF7C1FFD4EDA1
:1043E000097A94ED0A7A77EE877A94ED0B7A77EE74
:1043F000877A21463031C1ED007A94ED0E0A2046CD
:10440000FFF7AEFF236B6363236AE361A369636114
:104410002369E36010BD00238362704708B580ED17
:10442000000AC0ED010A80ED021AC0ED0E1A80EDFF
:104430000F2AFFF7F0FF08BD10B50446FFF7EEFFA7
:10444000204610BD08B54FF0E0231B6901F0E2FEE5
:10445000012800D108BD00F08DFAFBE7EFF30583DA
:104460002BB9064B186828B901221A6070476FF003
:10447000050070474FF0FF30704700BFA8120020C2
:10448000EFF3058373B90A4B1B68012B0DD110B5EF
:104490000024084BDC77064B02221A6001F00AFC6C
:1044A000204610BD6FF0050070474FF0FF30704799
:1044B000A812002000ED00E0F0B587B000240594BC
:1044C000EFF305847CBB70B32AB31568936903B915
:1044D00018235C1E372C4AD8546814F0010F48D1B9
:1044E000566976B14FEA960C946834B1D768B7F53F
:1044F000916F02D3176907B1C6B92CB14FF0FF34E1
:104500000EE04FF0800CEFE7D4688CB9146994B1D9
:104510004FF0FF3404E01546002418234FF0800CC0
:10452000012C0AD0ACB1059807B0F0BD0124F7E723
:104530004FF0FF34F4E70024F2E714699268029226
:10454000019400930B466246294601F041FB059019
:10455000E9E705AA019200930B461FFA8CF229465F
:1045600001F073FB0128DED000230593DBE7002078
:10457000DAE70020D8E708B5EFF3058333B908B9C7
:10458000002008BD01F002FD0020FAE76FF00500F1
:10459000F7E770B582B0EFF30583002B49D10E46E3
:1045A0001446002849D0884249D34AB1956815B1CC
:1045B000D3684F2B14D8002D43D1E3680BB139E0F9
:1045C000002301280ED073BB314600F063FD054681
:1045D00085B304B124682146284601F0D3F829E0C8
:1045E0000123EEE7B3B903220021012000F00BFD07
:1045F0000546002DECD0002EEAD000231A461946BD
:10460000284600F065FD0128E2D0284601F0E4F8D4
:1046100000250FE0A368032200920022114600F05B
:10462000A8FC0546E5E7A268314600F010FD054606
:10463000CEE70025284602B070BD0025FAE7002528
:10464000F8E70025F6E720B310B582B00C46EFF38B
:104650000583B3B101BB0021019101AA01F03EF82D
:1046600001281CD1019850B14FF0E0234FF0805247
:10467000C3F8042DBFF34F8FBFF36F8F002002B03C
:1046800010BD00F058FF01280CD06CB16FF0010094
:10469000F5E76FF0030070476FF00300EFE76FF08E
:1046A0000200ECE70020EAE76FF00200E7E720B342
:1046B00000B583B0EFF30583A3B10023019301A9F3
:1046C00000F031FE01281BD1019898B14FF0E02392
:1046D0004FF08052C3F8042DBFF34F8FBFF36F8F9D
:1046E000002007E000231A46194600F0F1FC0128DB
:1046F00009D1002003B05DF804FB6FF003007047A0
:104700006FF00200F6E76FF00200F3E7034B03607F
:10471000034B0B6080231360704700BF200E002006
:104720001C0C0020034B0360034B0B604FF48073A1
:1047300013607047B0160020AC12002000F108038F
:1047400043604FF0FF328260C36003610023036067
:10475000704700230361704743684B609A688A6022
:10476000516099600861036801330360704730B499
:104770000D68B5F1FF3F11D000F108031C465B68DE
:104780001A68AA42FAD963684B6099608C606160CC
:10479000086103680133036030BC70470469F2E7C5
:1047A0000369416882688A60416851605A68824240
:1047B00006D0002202611A68013A1A601868704730
:1047C00082685A60F5E7000082B0002301930D4B28
:1047D0001B68B3F1FF3F08D04FF0500383F31188FB
:1047E000BFF36F8FBFF34F8FFEE74FF0500383F39C
:1047F0001188BFF36F8FBFF34F8F019B002BFCD04D
:1048000002B070470C00002008480068006880F380
:1048100008884FF0000080F3148862B661B6BFF3D9
:104820004F8FBFF36F8F00DF00BF000008ED00E087
:10483000DFF80C00016841F470010160704700006E
:1048400088ED00E04FF0807340F8043C21F0010156
:1048500040F8081C054B40F80C3C40F8202C6FF049
:10486000020340F8243C4438704700BFC9470008A1
:10487000074B19680868B0E8F04F80F30988BFF368
:104880006F8F4FF0000080F311887047AFF3008006
:10489000A05700204FF0500383F31188BFF36F8FB0
:1048A000BFF34F8F0B4A136801331360012B00D005
:1048B00070474FF0E023D3F8043D13F0FF0FF7D01B
:1048C0004FF0500383F31188BFF36F8FBFF34F8F07
:1048D000FEE700BF0C000020094B1B6843B94FF0F6
:1048E000500383F31188BFF36F8FBFF34F8FFEE741
:1048F000013B034A13600BB983F31188704700BF73
:104900000C0000200000000000000000000000007B
:10491000EFF30980BFF36F8F154B1A681EF0100F6D
:1049200008BF20ED108A20E9F04F10602DE9090042
:104930004FF0500080F31188BFF34F8FBFF36F8F9C
:1049400001F04AFB4FF0000080F3118809BC1968A0
:104950000868B0E8F04F1EF0100F08BFB0EC108AE6
:1049600080F30988BFF36F8F704700BFAFF30080FB
:10497000A057002008B54FF0500383F31188BFF310
:104980006F8FBFF34F8F01F0F9F928B14FF0E0239B
:104990004FF08052C3F8042D002383F3118808BD23
:1049A0004FF0E022002313619361054B1B6805491A
:1049B000A1FB03139B09013B53610723136170475C
:1049C00000000020D34D62104FF0E023D3F8002DFB
:1049D0003D4B9A421CD04FF0E023D3F8002D3B4BC7
:1049E0009A421ED030B583B0394B1A78D2B20192B8
:1049F000FF221A701B78DBB28DF803309DF803306C
:104A000003F05003334A1370334B07221A601BE044
:104A10004FF0500383F31188BFF36F8FBFF34F8FB5
:104A2000FEE74FF0500383F31188BFF36F8FBFF39E
:104A30004F8FFEE7284A1368013B13609DF803304F
:104A40005B00DBB28DF803309DF8033013F0800F6C
:104A5000F0D1214B1B68032B08D04FF0500383F398
:104A60001188BFF36F8FBFF34F8FFEE71B021A4A07
:104A7000136003F4E0631360019BDBB2144A13700C
:104A80004FF0E024D4F8203D43F47003C4F8203DF7
:104A9000D4F8203D43F07043C4F8203DFFF780FF79
:104AA00000250E4B1D60FFF7C3FED4F8343F43F0E2
:104AB0004043C4F8343FFFF7A7FE01F08DFAFFF73B
:104AC00083FE284603B030BD71C20F4170C20F4152
:104AD00000E400E0381B00203C1B00200C000020FC
:104AE000EFF305830F2B0FD9114A9B5CDBB2114A00
:104AF00012789A4208D94FF0500383F31188BFF31C
:104B00006F8FBFF34F8FFEE74FF0E023D3F80C3DDC
:104B100003F4E063084A1268934208D94FF0500347
:104B200083F31188BFF36F8FBFF34F8FFEE770479A
:104B3000F0E300E0381B00203C1B0020124A12F07A
:104B4000070F1ED0D11D21F00701C1F5705313448A
:104B50000A460E480260002141601344083B23F0DE
:104B600007030B48036059601960991A516013607C
:104B7000084B1960084B1960084B4FF000421A604F
:104B800070474FF47053E4E7441B0020585700204F
:104B9000401B00204C57002048570020445700205D
:104BA000164B1A461B688342FBD3516802EB010C7B
:104BB000844509D0416800EB010C634509D00360CE
:104BC000904219D01060704740680144516010460F
:104BD000F0E710B40A4C2468A3420BD05B68194478
:104BE000416013681B680360904200D010605DF85C
:104BF000044B70470460F7E7704700BF5857002028
:104C0000401B002070B5054601F0AAF8364B1B6822
:104C1000A3B1364B1B681D424ED135B1083515F096
:104C2000070F02D025F007050835002D46D0304B80
:104C30001B68AB4251D32F4A146804E0FFF77EFF94
:104C4000E7E722461C466368AB4202D22368002B8A
:104C5000F7D1254B1B68A34241D01668083623685C
:104C6000136063685B1B102B10D9601910F0070FDD
:104C700008D04FF0500383F31188BFF36F8FBFF359
:104C80004F8FFEE743606560FFF78AFF626818494F
:104C90000B689B1A0B60184909688B4201D21649B0
:104CA0000B60124B1B681343636000232360134A9D
:104CB00013680133136002E0002600E0002601F0D3
:104CC000E9F816F0070F0CD04FF0500383F311886A
:104CD000BFF36F8FBFF34F8FFEE70026EFE700268D
:104CE000EDE7304670BD00BF401B00204457002058
:104CF00048570020585700204C570020505700209C
:104D0000002834D038B50446A0F1080550F8043C1A
:104D1000174A1268134208D14FF0500383F31188E9
:104D2000BFF36F8FBFF34F8FFEE750F8081C41B100
:104D30004FF0500383F31188BFF36F8FBFF34F8F92
:104D4000FEE723EA020340F8043C01F009F854F8B6
:104D5000041C084A13680B4413602846FFF720FF21
:104D6000054A13680133136001F094F838BD7047A9
:104D70004457002048570020545700200346406AFB
:104D800018B11B6B1868C0F13800704710B50446A5
:104D9000FFF780FDA26BE36B9A4204D00024FFF77B
:104DA0009BFD204610BD0124F9E710B50446FFF72E
:104DB00071FDA36B23B90124FFF78EFD204610BDC2
:104DC0000024F9E770B504461546866B026C5AB9A3
:104DD00003681BB100200136A66370BD806801F036
:104DE00075FA0023A360F6E76DB94068FCF7DCFABA
:104DF000226C636813446360A268934219D32368EA
:104E000063602846E7E7C068FCF7CEFA226C51429F
:104E1000E3689B1AE3602268934202D2A3680B44C2
:104E2000E360022D01D00020D5E726B1013E00202D
:104E3000D1E72846CFE70020CDE70346026C6AB1F0
:104E400010B50846D9681144D9609C68A14201D3C5
:104E50001968D960D968FCF7A7FA10BD704738B552
:104E60000546FFF717FD95F8454064B201E0013CA7
:104E700064B2002C0ADD6B6A43B105F1240001F035
:104E80002FF90028F3D001F0BFF9F0E7FF2385F8F0
:104E90004530FFF721FDFFF7FDFC95F8444064B273
:104EA00001E0013C64B2002C0ADD2B6943B105F13D
:104EB000100001F015F90028F3D001F0A5F9F0E792
:104EC000FF2385F84430FFF707FD38BD38B5E0B162
:104ED0000D460446FFF7DEFC2368E26B216C01FB04
:104EE0000230A0600020A0636360013A02FB01333E
:104EF000E360FF2384F8443084F84530FDB923692A
:104F000063B9FFF7E9FC012038BD4FF0500383F38C
:104F10001188BFF36F8FBFF34F8FFEE704F11000CE
:104F200001F0DEF80028ECD04FF0E0234FF0805283
:104F3000C3F8042DBFF34F8FBFF36F8FE1E704F188
:104F40001000FFF7FBFB04F12400FFF7F7FBD8E7A5
:104F500038B51D46049C0B4649B92460E0632364C0
:104F600001212046FFF7B2FF84F84C5038BD226083
:104F7000F4E740B94FF0500383F31188BFF36F8F0C
:104F8000BFF34F8FFEE710B584B01C46844653B183
:104F900092B189B94FF0500383F31188BFF36F8F3B
:104FA000BFF34F8FFEE74FF0500383F31188BFF339
:104FB0006F8FBFF34F8FFEE76AB150230393039BBC
:104FC000502B13D04FF0500383F31188BFF36F8F32
:104FD000BFF34F8FFEE70029EFD04FF0500383F36C
:104FE0001188BFF36F8FBFF34F8FFEE7039B012341
:104FF00084F8463000949DF818306046FFF7A8FF0B
:10500000204604B010BD40B94FF0500383F311881F
:10501000BFF36F8FBFF34F8FFEE7F0B583B00D4640
:105020001446064601FB00F05030FFF7EBFD074643
:1050300050B1002380F846300090234600F1500222
:1050400029463046FFF784FF384603B0F0BD40B92B
:105050004FF0500383F31188BFF36F8FBFF34F8F6F
:10506000FEE710B582B00C46884208D24FF05003DC
:1050700083F31188BFF36F8FBFF34F8FFEE70223D7
:105080000093134600221146FFF773FF00B18463BB
:1050900002B010BD40B94FF0500383F31188BFF345
:1050A0006F8FBFF34F8FFEE710B50C46884208D2D2
:1050B0004FF0500383F31188BFF36F8FBFF34F8F0F
:1050C000FEE702220021FFF79EFF00B1846310BDBE
:1050D000F0B585B0019288B10F461D460446B1B1C6
:1050E000022D20D1E36B012B1DD04FF0500383F331
:1050F0001188BFF36F8FBFF34F8FFEE74FF0500360
:1051000083F31188BFF36F8FBFF34F8FFEE7036CFC
:10511000002BE5D04FF0500383F31188BFF36F8F5E
:10512000BFF34F8FFEE701F075F8064658B9019BB3
:10513000002B48D04FF0500383F31188BFF36F8FDB
:10514000BFF34F8FFEE700263DE02A463946204652
:10515000FFF738FE636A7BB948B14FF0E0234FF0A8
:105160008052C3F8042DBFF34F8FBFF36F8FFFF74B
:10517000B3FB012005B0F0BD04F1240000F0B0FF46
:105180000028F4D04FF0E0234FF08052C3F8042DF4
:10519000BFF34F8FBFF36F8FE9E7FFF79DFB002051
:1051A000E8E702A800F0E2FF012619E0002384F8F6
:1051B000443021E0002384F8453023E02046FFF707
:1051C0004EFE00F067FEFFF765FBA26BE36B9A42B1
:1051D000BBD3022DB9D0019B002BDED0002EE0D036
:1051E000FFF77AFB00F0BCFDFFF754FB94F8442076
:1051F00052B2B2F1FF3FD9D094F8452052B2B2F189
:10520000FF3FD7D0FFF768FB01A902A800F0BAFF63
:10521000D8B92046FFF7BAFD0028CFD0019904F194
:10522000100000F029FF2046FFF719FE00F032FEC3
:105230000028C8D14FF0E0234FF08052C3F8042D6E
:10524000BFF34F8FBFF36F8FBDE72046FFF707FE19
:1052500000F020FE00208DE72DE9F84390B10F46C5
:1052600016461C460546B1B1022C20D1EB6B012B32
:105270001DD04FF0500383F31188BFF36F8FBFF33E
:105280004F8FFEE74FF0500383F31188BFF36F8F0A
:10529000BFF34F8FFEE7036C002BE5D04FF05003B8
:1052A00083F31188BFF36F8FBFF34F8FFEE7FFF7D4
:1052B00017FCEFF311894FF0500383F31188BFF30C
:1052C0006F8FBFF34F8FAA6BEB6B9A4206D3022C02
:1052D00004D0002089F31188BDE8F88395F8458053
:1052E0004FFA88F8AB6B224639462846FFF76AFD2D
:1052F000B8F1FF3F06D008F101035BB285F84530F5
:105300000120E7E76B6A0BB90120E3E705F1240010
:1053100000F0E6FE18B126B101203060DAE7012086
:10532000D8E70120D6E768B170B50C460546036C96
:105330008BB14FF0500383F31188BFF36F8FBFF32E
:105340004F8FFEE74FF0500383F31188BFF36F8F49
:10535000BFF34F8FFEE70368EBB1FFF7C1FBEFF33D
:1053600011864FF0500383F31188BFF36F8FBFF3A3
:105370004F8FAA6BEB6B934226D995F845305BB201
:105380000132AA63B3F1FF3F11D001335BB285F85C
:105390004530012019E08368002BDED04FF0500328
:1053A00083F31188BFF36F8FBFF34F8FFEE76B6AF4
:1053B0000BB9012009E005F1240000F091FE38B19D
:1053C00044B10120206000E0002086F3118870BD08
:1053D0000120FAE70120F8E7F0B585B0019290B11D
:1053E0000F460446C1B100F015FF064600BB019B05
:1053F000002B5ED04FF0500383F31188BFF36F8F03
:10540000BFF34F8FFEE74FF0500383F31188BFF3D4
:105410006F8FBFF34F8FFEE7036C002BE3D04FF08D
:10542000500383F31188BFF36F8FBFF34F8FFEE7F5
:1054300000263EE039462046FFF7FFFC013DA5630C
:10544000236923B9FFF748FA012005B0F0BD04F144
:10545000100000F045FE0028F4D04FF0E0234FF09C
:105460008052C3F8042DBFF34F8FBFF36F8FE9E76E
:10547000FFF732FA0020E8E702A800F077FE0126E5
:1054800021E0002384F8443029E0002384F84530EB
:105490002BE02046FFF7E3FC00F0FCFC09E020468F
:1054A000FFF7DDFC00F0F6FC2046FFF77EFC00284D
:1054B0003FD1FFF7EFF9A56B002DBBD1019B002B6E
:1054C000D6D0002ED8D0FFF707FA00F049FCFFF73E
:1054D000E1F994F844305BB2B3F1FF3FD1D094F8D6
:1054E00045305BB2B3F1FF3FCFD0FFF7F5F901A92B
:1054F00002A800F047FE0028D1D12046FFF755FC56
:105500000028C6D0019904F1240000F0B5FD204622
:10551000FFF7A5FC00F0BEFC0028CAD14FF0E02345
:105520004FF08052C3F8042DBFF34F8FBFF36F8F3E
:10553000BFE7002089E770B584B0019158B10446F7
:10554000036C8BB14FF0500383F31188BFF36F8F5F
:10555000BFF34F8FFEE74FF0500383F31188BFF383
:105560006F8FBFF34F8FFEE700F054FE054650B932
:10557000019B5BB14FF0500383F31188BFF36F8F32
:10558000BFF34F8FFEE70026354655E0064653E051
:10559000013BA36323683BB123694BB9FFF79CF937
:1055A0000126304604B070BD00F028FFA060F3E78C
:1055B00004F1100000F094FD0028EFD04FF0E0233C
:1055C0004FF08052C3F8042DBFF34F8FBFF36F8F9E
:1055D000E4E746B14FF0500383F31188BFF36F8FB8
:1055E000BFF34F8FFEE7FFF777F9DAE702A800F085
:1055F000BDFD01252AE0002384F8443032E0002379
:1056000084F8453034E0FFF745F9A06800F012FE59
:105610000646FFF761F93BE02046FFF720FC00F06B
:1056200039FC09E02046FFF71AFC00F033FC204665
:10563000FFF7BBFB002842D1FFF72CF9A36B002B2F
:10564000A6D1019B002BC4D0002DCFD0FFF744F989
:1056500000F086FBFFF71EF994F844305BB2B3F11B
:10566000FF3FC8D094F845305BB2B3F1FF3FC6D0DE
:10567000FFF732F901A902A800F084FD0028D1D17A
:105680002046FFF792FB0028C6D02368002BBAD033
:10569000019904F1240000F0EFFC2046FFF7DFFB46
:1056A00000F0F8FB0028C7D14FF0E0234FF0805204
:1056B000C3F8042DBFF34F8FBFF36F8FBCE70EB954
:1056C00000266EE7FFF7E6F82046FFF757FB014696
:1056D000A06800F043FEFFF7FFF8F1E72DE9F8437B
:1056E000B0B10D4616460446D9B1FFF7F9F9EFF30C
:1056F00011884FF0500383F31188BFF36F8FBFF30E
:105700004F8FA76BCFB9002088F31188BDE8F883CD
:105710004FF0500383F31188BFF36F8FBFF34F8FA8
:10572000FEE7036C002BE0D04FF0500383F31188A9
:10573000BFF36F8FBFF34F8FFEE794F844904FFA9B
:1057400089F929462046FFF778FB013FA763B9F1A5
:10575000FF3F06D009F101035BB284F84430012019
:10576000D2E723690BB90120CEE704F1100000F065
:10577000B7FC18B126B101203060C5E70120C3E7AE
:105780000120C1E70023072B0CD8074A52F8332029
:105790000AB10133F7E7044A42F8331002EBC303BE
:1057A00058607047704700BF605700200023072BE8
:1057B0000FD8084A02EBC3025268824201D001337B
:1057C000F5E7044A002142F8331002EBC3035960A5
:1057D000704770476057002038B110B50446FFF796
:1057E000E5FF94F846304BB110BD4FF0500383F302
:1057F0001188BFF36F8FBFF34F8FFEE72046FFF78F
:105800007FFAF1E770B504460D461646FFF742F8F9
:1058100094F844305BB2B3F1FF3F0DD094F84530BB
:105820005BB2B3F1FF3F0BD0FFF756F8A36B5BB150
:105830002046FFF714FB70BD002384F84430EDE7E9
:10584000002384F84530EFE73246294604F124006E
:1058500000F02AFCECE70000084B1B681B6823B92A
:10586000074B4FF0FF321A607047044B1B68DB6830
:10587000DB685A68024B1A60704700BFA4570020CB
:105880004C5C00202DE9F04780460D4617469946AE
:10589000089EDDF824A00A9C9200A521206B01F04F
:1058A00087FD236B07F18042013A03EB820727F063
:1058B0000707002D65D04FF0000CBCF10F0F0BD87F
:1058C00015F80C2004EB0C0383F8342015F80C3089
:1058D00013B10CF1010CF0E7002384F84330372EAC
:1058E00000D93726E662E66400252565201DFEF70F
:1058F00030FF04F11800FEF72CFF2461C6F13806D2
:10590000A6616462C4F8805484F884544FF48562BC
:10591000294604F1580001F04BFD04F55173E3658D
:1059200004F56B73236604F21443636601220023BB
:10593000C4E9402343F20E33A4F808314AF6CD33CC
:10594000A4F80A3141F23423A4F80C314EF26D630D
:10595000A4F80E314DF6EC63A4F810310523A4F839
:1059600012310B23A4F814314A4641463846FEF75B
:1059700069FF2060BAF1000F01D0CAF80040BDE80D
:10598000F087002384F83430A9E7000038B50024FC
:1059900007E004EB840293000E481844FEF7CEFEA5
:1059A0000134372CF5D90C4D2846FEF7C7FE0B4CB9
:1059B0002046FEF7C3FE0A48FEF7C0FE0948FEF780
:1059C000BDFE0948FEF7BAFE084B1D60084B1C607F
:1059D00038BD00BFAC570020205C0020345C0020A4
:1059E000585C0020845C0020705C0020A4570020DC
:1059F000A857002010B50446FEF74CFF224A136852
:105A000001331360214B1B685BB1214B1B686BB9E1
:105A10001E4B1B68DA6AE36A9A4207D81B4B1C606C
:105A200004E01A4B1C601368012B29D0194A136833
:105A3000013313606364E06A174B1B68984201D915
:105A4000154B186000EB8000211D144B03EB800008
:105A5000FEF782FEFEF740FF0D4B1B687BB10B4B40
:105A60001B68DA6AE36A9A4209D24FF0E0234FF0EA
:105A70008052C3F8042DBFF34F8FBFF36F8F10BD5B
:105A8000FFF784FFD2E700BF0C5C0020A057002086
:105A90006C5C0020185C00201C5C0020AC570020CF
:105AA00010B50446583001F0F9FC94F8853463B120
:105AB000012B11D0022B0ED04FF0500383F311882D
:105AC000BFF36F8FBFF34F8FFEE7206BFFF718F91F
:105AD0002046FFF715F910BD2046FFF711F9FAE748
